:040000008A11112828
:10000800FE00030EFA000408FB000A08FC00831235
:1000180003137F08FD008A11AD2A8A11482B831229
:100028000313AA01A31F19281A282928A009A1091E
:10003800A209A309A00A0319A10A0319A20A03190C
:10004800A30AAA010314AA0D2928A71F2C282D28C2
:100058003D28A409A509A609A709A40A0319A50A00
:100068000319A60A0319A70A0130A8002808AA0636
:100078003D280030AE000030AD000030AC0000304C
:10008800AB00230822042104200403194C284D281E
:10009800A128A9010314A90D5F280130A8000310A5
:1000A800A00DA10DA20DA30DA80B53280130A80087
:1000B8002808A9075F28A31F6228632851286528F4
:1000C80065280130A8000310AB0DAC0DAD0DAE0DC9
:1000D800A80B672823082702031D7C28220826026C
:1000E800031D7C2821082502031D7C2820082402E2
:1000F800031C7F28802890282008A4022108031CBC
:10010800210FA5022208031C220FA6022308031CA4
:10011800230FA7022B14902801300310A30CA20C64
:10012800A10CA00CFF3E031D91280130A902031D5C
:100138009E289F286528A128A1282A08031DA528EC
:10014800B128AB09AC09AD09AE09AB0A0319AC0A71
:100158000319AD0A0319AE0AB1282E08A3002D0809
:10016800A2002C08A1002B08A000BA2808008312BE
:100178000313051285123230A0000030A1008A1145
:100188008A228A118312031307080F39303887002F
:10019800851685121A30A9000030AA00D428D42860
:1001A8000130A9020030031CAA03AA022A08290464
:1001B800031DDF28E028D428E12807080F39203854
:1001C8008700851685122830A8002808A00000306E
:1001D8008A1168218A110C3083120313A800280899
:1001E800A00000308A1168218A1183120313A0012C
:1001F8000314A00D00308A1168218A11023083127D
:100208000313A0000030A1008A118A228A11063047
:1002180083120313A8002808A00000308A1168215F
:100228008A11080083120313A9005A294D29A00135
:100238000314A00D00308A1168218A11023083123C
:100248000313A0000030A1008A118A228A115A29BA
:10025800C03083120313A8002808A00000308A11B8
:1002680068218A115A2983120313290884008A11E4
:1002780000238A11A8002808A00001308A116821EB
:100288008A11013083120313A8002808A9075A29E4
:100298005A29290884008A1100238A110A3A031965
:1002A8002C29693A03191B2937295A298312031360
:1002B800290884008A1100238A110038031D652942
:1002C80066294D296729080083120313A7002718F8
:1002D8006E297229831203130516752983120313D5
:1002E80005120530A3000030A4007B297B290130CA
:1002F800A3020030031CA403A40224082304031D42
:10030800862987297B298829F0302005A10007083C
:100318000F3921048700851685122008A1000430B2
:100328000310A10DFF3E031D9429F0302105A20002
:1003380007080F3922048700851685120530A500A5
:100348000030A600A829A8290130A5020030031C06
:10035800A603A60226082504031DB329B429A82943
:10036800B5290800F3007318BA29BE2983120313AC
:100378000516C1298312031305120530F400003055
:10038800F500C729C7290130F4020030031CF50322
:10039800F50275087404031DD229D329C729D42965
:1003A800F0307005F1008312031307080F39710448
:1003B8008700851685127008F10004300310F10DCE
:1003C800FF3E031DE229F0307105F20007080F39DE
:1003D80072048700851685120530F6000030F70094
:1003E800F629F6290130F6020030031CF703F7025C
:1003F80077087604031D012A022AF629032A080031
:100408008A111D238A118A11BB208A110030831298
:100418000313B2000030B1002530B0008030AF00C7
:100428008A1150228A11E83083120313A000033086
:10043800A1008A118A228A1101308A1116218A1193
:10044800F43083120313A0000130A1008A118A221C
:100458008A1183120313A0010314A00D00308A111E
:1004680068218A11023083120313A0000030A10012
:100478008A118A228A1110308A11D0228A113230C8
:1004880083120313A0000030A1008A118A228A1166
:100498003F2A3F2A8A111128831203132F08B30019
:1004A8003008B4003108B5003208B6000430031033
:1004B800B30DB40DB50DB60DFF3E031D5B2A36080E
:1004C800A3003508A2003408A1003308A0000030BA
:1004D800A7007A30A6001230A5000030A4008A11C7
:1004E80013208A11831203132008FF3E8316031377
:1004F80099001815181283120313981718168316E3
:10050800031398168B170B178C1608008530831267
:100518000313A2000030A300922A922A0130A202FB
:100528000030031CA303A30223082204031D9D2AF1
:100538009E2A922A9F2A0130A0020030031CA103A0
:10054800A10221082004031DAA2AAB2A8A2AAC2A60
:1005580008008C1EB02AB12AC32A981CB42AB52ACE
:10056800B92A18121816B92AB92A8C1EBC2ABD2A0B
:10057800B92ABE2A1A088A116D238A11C32A7D084E
:1005880083120313FF007C088A007B0884007A0E1C
:100598008300FE0E7E0E090083120313A200E32AD5
:1005A800220884008A1100238A118A1157238A118C
:1005B800013083120313A1002108A207E32A2208AD
:1005C80084008A1100238A110038031DEC2AED2AC1
:0605D800D42AEE2A0800FF
:1006000003308A000408840A8207003450344934D5
:1006100043344334493452344334553449345434E4
:100620002E3443344F344D340034573465346C34F5
:1006300063346F346D3465340034831603130F173D
:100640008F160F16831203179E019F018316031343
:100650008501870115158113831203138701643007
:10066000A0000030A1008A118A228A1108007E08A9
:100670008A007F0882008A1137238A118000840A49
:1006800004087D0603190034FF0A0319FE0A3B2BF8
:1006900083134130FD000330FE006330FF0037302C
:1006A00084008A113B238A1183018A11042A831250
:1006B0000313A0005B2B0C1E5E2B5F2B5B2B602BB0
:1006C0002008990008003034313432343334343463
:1006D00035343634373438343934F9007908F80091
:0E06E0007808F00001308A11B6218A11080056
:02400E00F4FCC0
:00000001FF
