:060000000A168A15D5293D
:1000080028300A168A1514230A128A110230FC00B5
:100018000030FD000A168A15F3210A128A110E30E3
:100028000A168A1514230A128A110230FC000030BD
:10003800FD000A168A15F3210A128A1106300A16DB
:100048008A1514230A128A110230FC000030FD00C0
:100058000A168A15F3210A128A1101300A168A151E
:1000680014230A128A110230FC000030FD000A161F
:100078008A15F3210A128A110C300A168A151423DC
:100088000A128A110230FC000030FD000A168A1597
:10009800F3210A128A11080083120313CA01F31FFD
:1000A800562857286628F009F109F209F309F00AD9
:1000B8000319F10A0319F20A0319F30ACA0103140E
:1000C800CA0D6628F71F69286A287A28F409F509ED
:1000D800F609F709F40A0319F50A0319F60A0319C8
:1000E800F70A0130F8007808CA067A280030CE00EE
:1000F8000030CD000030CC000030CB007308720413
:1001080071047004031989288A28DE28C901031498
:10011800C90D9C280130F8000310F00DF10DF20D07
:10012800F30DF80B90280130F8007808C9079C28CF
:10013800F31F9F28A0288E28A228A2280130F800A3
:100148000310CB0DCC0DCD0DCE0DF80BA4287308E4
:100158007702031DB92872087602031DB9287108B1
:100168007502031DB92870087402031CBC28BD2839
:10017800CD287008F4027108031C710FF50272088B
:10018800031C720FF6027308031C730FF7024B145B
:10019800CD2801300310F30CF20CF10CF00CFF3EEB
:1001A800031DCE280130C902031DDB28DC28A22844
:1001B800DE28DE284A08031DE228EE28CB09CC09F0
:1001C800CD09CE09CB0A0319CC0A0319CD0A0319A4
:1001D800CE0AEE284E08F3004D08F2004C08F10054
:1001E8004B08F000F72808001429EC135B296D1060
:1001F8005B29EB115B29ED135B29ED105B296B1073
:100208005B29ED115B296B135B29EC105B296D13DE
:100218005B29EB125B296B125B296D115B295B294A
:10022800831203133708013A0319F928033A03190B
:10023800FB28013A0319FD28073A0319FF28013A58
:1002480003190129033A03190329013A0319052956
:100258000F3A03190729013A03190929023A031920
:100268000B29073A03190D29013A03190F29033AF3
:10027800031911295B295B29EC1784296D1484293A
:10028800EB158429ED178429ED1484296B1484292E
:10029800ED1584296B178429EC1484296D1784299A
:1002A800EB1684296B1684296D158429842938084E
:1002B800013A03194029033A03194229013A03195B
:1002C8004429073A03194629013A03194829033AE8
:1002D80003194A29013A03194C290F3A03194E29DF
:1002E800013A03195029023A03195229073A031906
:1002F8005429013A03195629033A0319582984291C
:10030800EC1F8729882994293C08380603198D2968
:100318008E2994290A168A1550210A128A119429BD
:10032800831203136D1C99299A29AE293C083806B3
:1003380003199F29A029AE29CD30CE009830CF00CF
:10034800D0010314D00DD1010A168A1509250A1205
:100358008A11AE2983120313ED1FB329B429F42996
:100368003C0838060319B929BA29F4296130CE00A6
:100378009830CF00D0010314D00DD1010A168A1588
:1003880009250A128A116430FC000030FD000A16A3
:100398008A15F3210A128A11F63083120313CE004C
:1003A8009830CF00D0010314D00DD1010A168A1558
:1003B80009250A128A1186300A168A1514230A1288
:1003C8008A1131300A168A154D230A128A118312AE
:1003D800031335080A168A156E270A128A11F4299A
:1003E80083120313ED1CF929FA29462A3C0838061A
:1003F8000319FF29002A462A01300A168A151423F0
:100408000A128A11D83083120313CE009830CF0015
:10041800D001D1010A168A1509250A128A116A30F3
:1004280083120313CE009830CF00D001D1010A16F1
:100438008A1509250A128A116430FC000030FD0073
:100448000A168A15F3210A128A110A308312031335
:10045800DA005A08F4000A168A15B7210A128A1116
:1004680083120313DB00DC015B08B3005C08B400F3
:10047800BB010314BB0D01300A168A1514230A1296
:100488008A11462A831203136B1C4B2A4C2A862A8C
:100498003C0838060319512A522A862A3230CE00DF
:1004A8009830CF00D0010314D00DD1010A168A1557
:1004B80009250A128A11033083120313CE009930DA
:1004C800CF00D001D1010314D10D0A168A150925D0
:1004D8000A128A11763083120313DA005A08F400DC
:1004E8000A168A15B7210A128A1183120313DB0030
:1004F800DC015B08B3005C08B4000230DA005A087B
:10050800BB00862AED1D892A8A2AC42A3C08380697
:1005180003198F2A902AC42AA830CE009830CF0019
:10052800D0010314D00DD1010A168A1509250A1223
:100538008A11033083120313CE009930CF00D00103
:10054800D1010314D10D0A168A1509250A128A1138
:10055800773083120313DA005A08F4000A168A1552
:10056800B7210A128A1183120313DB00DC015B082E
:10057800B3005C08B4000230DA005A08BB00C42A91
:100588006D1FC72AC82AF32A3C0838060319CD2A42
:10059800CE2AF32A4630CE009830CF00D00103147B
:1005A800D00DD1010A168A1509250A128A11783048
:1005B80083120313DA005A08F4000A168A15B721C1
:1005C8000A128A1183120313DB00DC015B08B300F3
:1005D8005C08B4000230DA005A08BB00F32A6B1F2B
:1005E800F62AF72A312B3C0838060319FC2AFD2A7B
:1005F800312B7030CE009830CF00D0010314D00DCD
:10060800D1010A168A1509250A128A1103308312A4
:100618000313CE009930CF00D001D1010314D10DBE
:100628000A168A1509250A128A11793083120313CA
:10063800DA005A08F4000A168A15B7210A128A1134
:1006480083120313DB00DC015B08B3005C08B40011
:100658000230DA005A08BB00312BEC1C342B352B46
:100668006F2B3C08380603193A2B3B2B6F2BE230D3
:10067800CE009830CF00D0010314D00DD1010A1656
:100688008A1509250A128A11033083120313CE0032
:100698009930CF00D001D1010314D10D0A168A1563
:1006A80009250A128A11933083120313DA005A08B3
:1006B800F4000A168A15B7210A128A118312031345
:1006C800DB00DC015B08B3005C08B4000230DA0030
:1006D8005A08BB006F2BEB1E722B732BB42B3C08F4
:1006E80038060319782B792BB42BEC30CE009830D0
:1006F800CF00D0010314D00DD1010A168A1509259F
:100708000A128A11C8300A168A1514230A128A1185
:100718007F3083120313DA005A08FC007E300A1671
:100728008A15A7220A128A117D0883120313D101A0
:10073800D1077C08D001D0070530DB005B08D20068
:10074800D3010A168A1101210A128A113230FC00DB
:100758000030FD000A168A15F3210A128A11B42BFB
:10076800831203136B1EB92BBA2BD42B3C08380603
:100778000319BF2BC02BD42BC130CE009830CF002B
:10078800D0010314D00DD1010A168A1509250A12C1
:100798008A11073083120313DA005A08BB00D42BDE
:1007A800B801B7013808DA005A08BC0008008312FB
:1007B80003136B1DE02BE12B292C0630B900D20066
:1007C8005208BA000C30D2005208F00048080A1645
:1007D8008A1586210A128A11FE3E83120313D3005A
:1007E8005308F4000A168A15B7210A128A118312CF
:1007F8000313D400D5015408CC005508CD000C30A3
:10080800D6005608F00048080A168A1586210A12EA
:100818008A11FF3E83120313D7005708F4000A1603
:100828008A15B7210A128A1183120313D800D90135
:100838005808CE005908CF000A168A153B240A1218
:100848008A11831203136B11292CED1E2C2C2D2CCD
:10085800742C0830B900D2005208BA000C30D2000B
:100868005208F00048080A168A1586210A128A11C9
:1008780083120313D3005308F4000A168A15B7210C
:100888000A128A1183120313D400D5015408CC002C
:100898005508CD000C30D6005608F00048080A1656
:1008A8008A1586210A128A11013E83120313D70082
:1008B8005708F4000A168A15B7210A128A118312FA
:1008C8000313D800D9015808CE005908CF000A16DA
:1008D8008A153B240A128A1183120313ED12742C11
:1008E8006C1F772C782CC02C0330B900D20052082A
:1008F800BA000C30D2005208F00048080A168A15CF
:1009080086210A128A11023E83120313D300530868
:10091800F4000A168A15B7210A128A1183120313E2
:10092800D400D5015408CC005508CD000C30D600B1
:100938005608F00048080A168A1586210A128A11F4
:10094800033E83120313D7005708F4000A168A15CA
:10095800B7210A128A1183120313D800D901580843
:10096800CE005908CF000A168A153B240A128A11AC
:10097800831203136C13C02CEC1DC32CC42C0C2D38
:100988000130B900D2005208BA000C30D200520827
:10099800F00048080A168A1586210A128A11043EB0
:1009A80083120313D3005308F4000A168A15B721DB
:1009B8000A128A1183120313D400D5015408CC00FB
:1009C8005508CD000C30D6005608F00048080A1625
:1009D8008A1586210A128A11053E83120313D7004D
:1009E8005708F4000A168A15B7210A128A118312C9
:1009F8000313D800D9015808CE005908CF000A16A9
:100A08008A153B240A128A1183120313EC110C2D48
:100A18006E1C0F2D102D582D0930B900D200520828
:100A2800BA000C30D2005208F00048080A168A159D
:100A380086210A128A11063E83120313D300530833
:100A4800F4000A168A15B7210A128A1183120313B1
:100A5800D400D5015408CC005508CD000C30D60080
:100A68005608F00048080A168A1586210A128A11C3
:100A7800073E83120313D7005708F4000A168A1595
:100A8800B7210A128A1183120313D800D901580812
:100A9800CE005908CF000A168A153B240A128A117B
:100AA800831203136E10582D6C1D5B2D5C2D7F2D4A
:100AB8000430B900D2005208BA009330D20052086C
:100AC800F4000A168A15B7210A128A118312031331
:100AD800D300D4015308CC005408CD000230CE0016
:100AE8000030CF000A168A153B240A128A11831295
:100AF80003136C117F2DEB1C822D832D2B2E0530BB
:100B0800B900D2005208BA009130D2005208F4005D
:100B18000A168A15B7210A128A1183120313D30001
:100B2800D4015308AB005408AC00242EC6300A1672
:100B38008A1514230A128A11831203132C08FC0144
:100B4800FC072B08FB01FB074330D2005208FD00CD
:100B58000A168A1114200A128A11433083120313C9
:100B6800CE000030CF00D001D1010A168A15092520
:100B78000A128A11831203132B08D2005208F600B6
:100B880091300A168A1576220A128A117930831250
:100B98000313D2005208F4000A168A15B7210A1264
:100BA8008A1183120313D300D4015308F6005408A2
:100BB800F7000A30F8000030F9000A168A151B22DF
:100BC8000A128A11770883120313DB01DB07760800
:100BD800DA01DA077630D2005208F4000A168A15CC
:100BE800B7210A128A1183120313D300D4015308C0
:100BF800F6005408F7000A30F8000030F9000A1629
:100C08008A151B220A128A11770883120313CD0151
:100C1800CD077608CC01CC075B08CF01CF075A086F
:100C2800CE01CE070A168A153B240A128A11013012
:100C380083120313AB020030031CAC03AC02242E56
:100C48002C082B04031D292E2A2E9A2DEB106D1E1D
:100C58002E2E2F2EB12E0730B900D2005208BA001E
:100C68009230D2005208F4000A168A15B7210A12E7
:100C78008A1183120313D300D4015308AB0054081C
:100C8800AC00AA2E2B08D2005208F60092300A16A1
:100C98008A1576220A128A11793083120313D20038
:100CA8005208F4000A168A15B7210A128A1183120B
:100CB8000313D300D4015308F6005408F7000A3090
:100CC800F8000030F9000A168A151B220A128A1148
:100CD800770883120313DB01DB077608DA01DA07EA
:100CE8007730D2005208F4000A168A15B7210A1282
:100CF8008A1183120313D300D4015308F600540851
:100D0800F7000A30F8000030F9000A168A151B228D
:100D18000A128A11770883120313CD01CD077608CA
:100D2800CC01CC075B08CF01CF075A08CE01CE070C
:100D38000A168A153B240A128A11013083120313FA
:100D4800AB020030031CAC03AC02AA2E2C082B0407
:100D5800031DAF2EB02E462E6D126C1EB42EB52E6E
:100D6800CB2E0230B900D2005208BA002330CC0092
:100D78000030CD000230CE000030CF000A168A15B0
:100D88003B240A128A11831203136C12CB2EEB1F19
:100D9800CE2ECF2EFF2E0A30B900D2005208BA004C
:100DA800FF30D2005208F4000A168A15B7210A1239
:100DB8008A1183120313D300D4015308CC005408BA
:100DC800CD00FF30D5005508F4000A168A15B72162
:100DD8000A128A1183120313D600D7015608CE00CF
:100DE8005708CF000A168A153B240A128A11831263
:100DF8000313EB13FF2E0800FF0007308A007F085B
:100E08008207052F0A168A15B729831203134F087C
:100E1800D3005008D4005108D5005208D600063037
:100E28000310D30DD40DD50DD60DFF3E031D142F81
:100E38005608F3005508F2005408F1005308F00072
:100E48000030D7002D30D8003130D9000130DA0019
:100E58004F08DB005008DC005108DD005208DE00B6
:100E680006300310DB0DDC0DDD0DDE0DFF3E031D2E
:100E7800352FDB09DC09DD09DE09DB0A0319DC0A89
:100E88000319DD0A0319DE0A5B08D7075C08031893
:100E98005C0F4F2F502FD8075D0803185D0F552F93
:100EA800562FD9075E0803185E0ADA075A08F700B2
:100EB8005908F6005808F5005708F4000A128A1174
:100EC80050200A128A117108FA01FA077008F9010C
:100ED800F90701307A02003003197902031C752FD3
:100EE800762FDE2F831203134F08D3005008D40047
:100EF8005108D5005208D60004300310D30DD40D84
:100F0800D50DD60DFF3E031D812F5608F300550859
:100F1800F2005408F1005308F0000030D7002D30DB
:100F2800D8003130D9000130DA004F08DB00500812
:100F3800DC005108DD005208DE0004300310DB0D30
:100F4800DC0DDD0DDE0DFF3E031DA22FDB09DC09E4
:100F5800DD09DE09DB0A0319DC0A0319DD0A0319B6
:100F6800DE0A5B08D7075C0803185C0FBC2FBD2F8F
:100F7800D8075D0803185D0FC22FC32FD9075E0875
:100F880003185E0ADA075A08F7005908F6005808E5
:100F9800F5005708F4000A128A1150200A128A1123
:100FA8007108FA01FA077008F901F90783160313A3
:100FB8001815DE2F01307A02003003197902031860
:100FC800E62FE72FF72F79088316031399001812D5
:100FD80083120313981718168316031398168B1782
:100FE8000B178C16F72F080064008001840A04068A
:080FF800031900340406F92F6F
:10100400432802300A168A156A210A128A156228B0
:1010140003300A168A156A210A128A1562280430D6
:101024000A168A156A210A128A15622805300A16D8
:101034008A156A210A128A15622806300A168A1548
:101044006A210A128A15622807300A168A156A214B
:101054000A128A15622808300A168A156A210A12A9
:101064008A15622809300A168A156A210A128A1515
:1010740062280A300A168A156A210A128A15622819
:101084006228831203133B08013A03190328033A25
:1010940003190A28013A03191128073A03191828D1
:1010A400013A03191F28033A03192628013A0319A0
:1010B4002D280F3A03193B28013A031934286228D2
:1010C40008003B08031D6728A6293B080A3A0319B0
:1010D4006C286D28A6293B08083A0319722873283E
:1010E400A6290D300A168A156A210A128A15831256
:1010F40003134708013EFB00003003180130FC00D5
:101104004330DC005C08FD000A168A1114200A1220
:101114008A15433083120313CE000030CF00D00170
:10112400D1010A168A1509250A128A158312031396
:1011340035189D289E283029FD30CE009830CF00E8
:10114400D001D1010314D10D0A168A1509250A12FA
:101154008A150230F0000030F100831203133508C1
:10116400DC00DD015C08F2005D08F3000A168A1554
:1011740009260A128A157008013EA03E84008313D2
:1011840000080A168A154D230A128A1583120313BE
:10119400EE1CCD28CE285B29B508031DD228D32800
:1011A400D8280630B900DC005C08BA003508023AD9
:1011B400031DDD28DE28E3280830B900DC005C08C4
:1011C400BA003508043A031DE828E928EE2803305C
:1011D400B900DC005C08BA003508063A031DF328A0
:1011E400F428F9280130B900DC005C08BA0035089D
:1011F400083A031DFE28FF2805290930B900DC0040
:101204005C08BA0005290A168A15C0230A128A1531
:10121400831203133408F701F7073308F601F607BE
:101224006430F8000030F9000A168A151B220A12ED
:101234008A157708FD01FD077608FC01FC070A16EC
:101244008A15F3210A128A150A168A1586230A12A8
:101254008A1583120313EE105B295B297930CE00C3
:101264009830CF00D001D1010314D10D0A168A158C
:1012740009250A128A150230F0000030F1008312A9
:1012840003133508DC00DD015C08F2005D08F3009F
:101294000A168A1509260A128A157008013EA03E0C
:1012A4008400831300080A168A154D230A128A152E
:1012B4005B29C9300A168A1514230A128A15831267
:1012C40003133408D101D1073308D001D007023009
:1012D400DC005C08D200D3010314D30D0A168A1172
:1012E40001210A128A15CD300A168A1514230A120E
:1012F4008A15093083120313CE009930CF00D00130
:10130400D1010A168A1509250A128A1583120313B4
:101314003308DC005C08F6000C30DD005D08F000EA
:101324004708013E0A168A1586210A128A15831275
:101334000313DE0035085E07FE3E0A168A15762280
:101344000A128A15A629A629831203136B1CAB293A
:10135400AC292F2AEE29EE29340833040319B329C2
:10136400B429FC290130B3020030031CB403B402D5
:10137400FC29FC290130B3070318B40A0030B40770
:10138400FC293308DC005C08F60076300A168A155E
:1013940076220A128A15063083120313DC005C08D5
:1013A400B7000530DC005C08B800FC293308DC0019
:1013B4005C08F60076300A168A1576220A128A1517
:1013C400063083120313DC005C08B7000730DC002E
:1013D4005C08B800FC29FC293B08073A0319AE292C
:1013E4000F3A0319C329013A0319BC29033A031913
:1013F400D829FC293B08031D002A252A3B080A3A60
:101404000319052A062A252A3B08083A03190B2A38
:101414000C2A252AC8300A168A1514230A128A159A
:10142400831203133408D101D1073308D001D00744
:101434000330DC005C08D200D3010A168A110121B2
:101444000A128A15252A1430FC000030FD000A1601
:101454008A15F3210A128A152F2A83120313ED1D0C
:10146400342A352AB82A772A772A34083304031908
:101474003C2A3D2A852A0130B3020030031CB40300
:10148400B402852A852A0130B3070318B40A003050
:10149400B407852A3308DC005C08F60077300A16A6
:1014A4008A1576220A128A15073083120313DC0088
:1014B4005C08B7000630DC005C08B800852A3308F5
:1014C400DC005C08F60077300A168A1576220A12C8
:1014D4008A15073083120313DC005C08B700083058
:1014E400DC005C08B800852A852A3B08073A031902
:1014F400372A0F3A03194C2A013A0319452A033AA9
:101504000319612A852A3B08031D892AAE2A3B0850
:101514000A3A03198E2A8F2AAE2A3B08083A03197D
:10152400942A952AAE2AC8300A168A1514230A1258
:101534008A15831203133408D101D1073308D0016B
:10154400D0070330DC005C08D200D3010A168A11EC
:1015540001210A128A15AE2A1430FC000030FD0065
:101564000A168A15F3210A128A15B82A831203135C
:101574006B1FBD2ABE2A4E2B0B2B0B2B34083304B6
:101584000319C52AC62A192B0130B3020030031CE3
:10159400B403B402192B192B0130B3070318B40A8E
:1015A4000030B407192B3308DC005C08F6007930EE
:1015B4000A168A1576220A128A1508308312031332
:1015C400DC005C08B7000730DC005C08B80064305D
:1015D400FC000030FD000A168A15F3210A128A1550
:1015E400192B831203133308DC005C08F6007930EE
:1015F4000A168A1576220A128A15083083120313F2
:10160400DC005C08B7000930DC005C08B800192B6A
:10161400192B3B08073A0319C02A0F3A0319D52A94
:10162400013A0319CE2A033A0319F32A192B831218
:1016340003133B08031D1F2B442B3B080A3A0319D1
:10164400242B252B442B3B08083A03192A2B2B2B3C
:10165400442BC8300A168A1514230A128A158312D9
:1016640003133408D101D1073308D001D007033064
:10167400DC005C08D200D3010A168A1101210A1287
:101684008A15442B0A30FC000030FD000A168A1526
:10169400F3210A128A154E2B83120313EC1C532BCD
:1016A400542BE42BA12BA12B3408330403195B2BFB
:1016B4005C2BAF2B0130B3020030031CB403B40223
:1016C400AF2BAF2B0130B3070318B40A0030B407B3
:1016D400AF2B3308DC005C08F60093300A168A1539
:1016E40076220A128A15093083120313DC005C087F
:1016F400B7000830DC005C08B8006430FC0000303F
:10170400FD000A168A15F3210A128A15AF2B8312DB
:1017140003133308DC005C08F60093300A168A15BC
:1017240076220A128A15093083120313DC005C083E
:10173400B7000B30DC005C08B800AF2BAF2B3B08C4
:10174400073A0319562B0F3A03196B2B013A031965
:10175400642B033A0319892BAF2B831203133B0821
:10176400031DB52BDA2B3B080A3A0319BA2BBB2B02
:10177400DA2B3B08083A0319C02BC12BDA2BC830EB
:101784000A168A1514230A128A15831203133408BD
:10179400D101D1073308D001D0070330DC005C0845
:1017A400D200D3010A168A1101210A128A15DA2BF2
:1017B4000A30FC000030FD000A168A15F3210A12D3
:1017C4008A15E42B831203136D1FE92BEA2B702C6B
:1017D4002F2C2F2C00303402153003193302031C34
:1017E400F42BF52B3D2C0130B3020030031CB40361
:1017F400B4023D2C3D2C0130B3070318B40A003069
:10180400B4073D2C3308DC005C08F60078300A1677
:101814008A1576220A128A150B3083120313DC0010
:101824005C08B7000930DC005C08B8003D2C3308C4
:10183400DC005C08F60078300A168A1576220A1253
:101844008A150B3083120313DC005C08B7000C30DC
:10185400DC005C08B8003D2C3D2C3B08073A03191A
:10186400EC2B0F3A0319042C013A0319FD2B033A0C
:101874000319192C3D2C3B08031D412C662C3B08F5
:101884000A3A0319462C472C662C3B08083A0319DC
:101894004C2C4D2C662CC8300A168A1514230A12B7
:1018A4008A15831203133408D101D1073308D001F8
:1018B400D0070330DC005C08D200D3010A168A1179
:1018C40001210A128A15662C0A30FC000030FD0042
:1018D4000A168A15F3210A128A15702C831203132F
:1018E400EB1E752C762C9D2C8B2C8B2C0C30DC0059
:1018F4005C08B7000B30DC005C08B800932C0C309B
:10190400DC005C08B7000D30DC005C08B800932CE8
:10191400932C3B08083A0319782C023A0319812CBA
:10192400932C0A30FC000030FD000A168A15F321BE
:101934000A128A159D2C831203136B1EA22CA32C4E
:10194400452DF62CF62C3308DC005C08F6007C30C0
:101954000A168A1576220A128A150D308312031389
:10196400DC005C08B7000C30DC005C08B800FE2C1E
:101974003308DC005C08F6007C300A168A157622EF
:101984000A128A1583120313340833040319CB2C67
:10199400CC2CED2C7E30DC005C08E5009030650238
:1019A400031CD52CD62CD82CED2CED2CF601650877
:1019B4000A168A1576220A128A1501308312031335
:1019C400DC005C08E50790306502031CEA2CEB2C74
:1019D400D82CED2CED2C0D30DC005C08B700B801E0
:1019E4000314B80DFE2CFE2C3B08083A0319A52C51
:1019F400023A0319BA2CFE2C3B08031D022D3B2D81
:101A04003B080A3A0319072D082D3B2D3B08083AD9
:101A140003190D2D0E2D3B2DC6300A168A151423DD
:101A24000A128A15831203133B08093A031D1B2D5E
:101A34001C2D292D59300A168A154D230A128A1590
:101A4400013083120313B3000030B400292D3B0886
:101A5400073A031D2E2D2F2D3B2D4E300A168A15C5
:101A64004D230A128A1583120313B301B4013B2DCB
:101A74003B2D0A30FC000030FD000A168A15F321C4
:101A84000A128A15452D831203136D1D4A2D4B2D01
:101A9400EF2F062F062F3E08023A031D522D532D19
:101AA4006E2D0530DC005C08F60091300A168A15AC
:101AB40076220A128A1583120313EB140030CE0027
:101AC4009830CF00D0010314D00DD1010A168A1525
:101AD40009250A128A156E2D831203133E08033A50
:101AE400031D752D762DC02D2230CE009830CF00E9
:101AF400D0010314D00DD1010A168A1509250A1242
:101B04008A15063083120313DC005C08BA000A1637
:101B14008A15C0230A128A15B82D063083120313BE
:101B2400DC005C08BA000A168A15C0230A128A155A
:101B3400EE30FC000230FD000A168A15F3210A1269
:101B44008A15063083120313DC005C08B9000A16F8
:101B54008A1586230A128A15FA30FC000030FD002B
:101B64000A168A15F3210A128A15B82D8312031353
:101B7400061BBD2DBE2D8F2DC02DC02D8030DC0049
:101B84005C08C1008130DC005C08C200232F3E08E1
:101B9400023A031DCE2DCF2DEA2D0530DC005C0862
:101BA400F60092300A168A1576220A128A158312D2
:101BB40003136D165230CE009830CF00D0010314B9
:101BC400D00DD1010A168A1509250A128A15EA2DA3
:101BD400831203133E08033A031DF12DF22D3C2E0C
:101BE4009B30CE009830CF00D0010314D00DD1012A
:101BF4000A168A1509250A128A1508308312031356
:101C0400DC005C08BA000A168A15C0230A128A1579
:101C1400342E083083120313DC005C08BA000A1661
:101C24008A15C0230A128A15EE30FC000230FD002A
:101C34000A168A15F3210A128A150830831203132F
:101C4400DC005C08B9000A168A1586230A128A1574
:101C5400FA30FC000030FD000A168A15F3210A123E
:101C64008A15342E83120313861B392E3A2E0B2E1B
:101C74003C2E3C2E8230DC005C08C1008330DC004A
:101C84005C08C200232F8430DC005C08C10085306E
:101C9400DC005C08C200232F8630DC005C08C10035
:101CA4008730DC005C08C200232F8830DC005C082D
:101CB400C1008930DC005C08C200232F8A30DC00BC
:101CC4005C08C1008B30DC005C08C200232F3E0896
:101CD400033A031D6E2E6F2EC02E7F30CE00983037
:101CE400CF00D0010314D00DD1010A168A1509259D
:101CF4000A128A15093083120313DC005C08BA0047
:101D04000A168A15C0230A128A15AF2E83120313EA
:101D1400BA010314BA0D0A168A15C0230A128A15C9
:101D2400EE30FC000230FD000A168A15F3210A1277
:101D34008A1583120313B9010314B90D0A168A15FF
:101D440086230A128A15FA30FC000030FD000A16B8
:101D54008A15F3210A128A15AF2E8312031306186B
:101D6400B42EB52E882EB62E0930DC005C08B900DE
:101D74000A168A1586230A128A15C02E8C308312FD
:101D84000313DC005C08C1008D30DC005C08C20079
:101D9400232F8E30DC005C08C1008F30DC005C082F
:101DA400C200232F3E08013A031DD92EDA2EE42E59
:101DB4003D08013A031DDF2EE02EE42E0230DC0044
:101DC4005C08BE003E08023A031DE92EEA2EF42EFA
:101DD4003D08023A031DEF2EF02EF42E0330DC00F2
:101DE4005C08BE003E08033A031DF92EFA2E232F89
:101DF4003D08033A031DFF2E002F232FBE010314B9
:101E0400BE0D232F232F232F3B08013A03194D2DF9
:101E1400033A0319C92D013A0319452E073A031948
:101E24004E2E013A0319572E033A0319602E013A34
:101E34000319692E0F3A0319D42E013A0319CB2E34
:101E4400232F3D083E060319282F292F882F3E08EB
:101E5400013A031D2E2F2F2F3D2F8D30CE009830A9
:101E6400CF00D0010314D00DD1010A168A1509251B
:101E74000A128A153D2F831203133E08023A031DEA
:101E8400442F452F622FAC30CE009830CF00D001C4
:101E94000314D00DD1010A168A1509250A128A15D0
:101EA400B53083120313CE009830CF00D001D10196
:101EB4000314D10D0A168A1509250A128A15622FF0
:101EC400831203133E08033A031D692F6A2F782FE8
:101ED4009F30CE009830CF00D0010314D00DD10133
:101EE4000A168A1509250A128A15782F0A30FC0069
:101EF4000030FD000A168A15F3210A128A1583128E
:101F040003133E08DC005C08BD00882F3B08031D5A
:101F14008C2FEF2F3B08083A0319912F922FEF2FA4
:101F24000A168A1576210A128A15831203133E08AB
:101F3400013A03199E2F9F2FAE2F0A128A11DB2319
:101F44000A128A150E3083120313DC005C08B700F2
:101F5400B8010314B80DAE2F3E08033A0319B32F8A
:101F6400B42FBD2F3E08013A0319B92FBA2FBD2F44
:101F74006D11EC17BD2F3E08013A031DC22FC32F6C
:101F8400EF2F0A128A1502200A128A15C5300A1682
:101F94008A1514230A128A15831203134208DC00DB
:101FA4005C08FC0041080A168A15A7220A128A1541
:101FB4007D0883120313D101D1077C08D001D00717
:101FC4000530DD005D08D200D3010A168A11012113
:101FD4000A128A15EF2FEF2FEF2F831203133B08FA
:101FE400031DF52FFC2FBB01BF01AB01AC01AD01FB
:0C1FF400AE01FC2F08000A168A115F2EB7
:102002007E088A007F0882000A168A1101200A16B9
:102012008A118000840A04087D0603190034FF0A2D
:102022000319FE0A052883120313C00150280A303F
:10203200F0000030F1007C08F301F3077B08F201A5
:10204200F2070A168A15A3250A168A117008303E6D
:1020520083120313CD0040087D07CE004E08840092
:102062004D08831380000A30F0000030F1007C0834
:10207200F301F3077B08F201F2070A168A15092613
:102082000A168A117108FC01FC077008FB01FB07A4
:10209200013083120313CD004D08C00750287C087D
:1020A2007B04031D552856281828572840087D0709
:1020B200CD004D088400831380017D080A168A151D
:1020C200C2240A168A11080083120313061C6A2806
:1020D2006B288F28861C6E286F288F28061D722871
:1020E20073288F28861D762877288F28061E7A283F
:1020F2007B288F28861E7E287F288F28061F82280D
:1021020083288F28861F862887288F28071E8A28DB
:102112008B288F28871A8E288F28F128061B922851
:1021220093289728BB010314BB0D9728861B9A2876
:102132009B28A0280230F0007008BB00A028061AD5
:10214200A328A428A9280330F0007008BB00A928FE
:10215200861AAC28AD28B2280430F0007008BB0003
:10216200B2280619B528B628BB280530F000700839
:10217200BB00BB288619BE28BF28C4280630F00041
:102182007008BB00C4280618C728C828CD28073005
:10219200F0007008BB00CD288618D028D128D62898
:1021A2000930F0007008BB00D628871AD928DA282F
:1021B200DF280830F0007008BB00DF28071AE22889
:1021C200E328F1280A30F0007008BB006E1DEA28EF
:1021D200EB28ED286E11F1286E15F128F128F1286F
:1021E2003B080A3A0319F628F72800293B08F000B1
:1021F2007008C8003B08F0007008BF000029080002
:102202000A3083120313D8000030D9005208D400D8
:10221200D5015408D6005508D700003057020330C4
:10222200031956020318162917291929402940298A
:102232005908F701F7075808F601F6070A30F800BF
:102242000030F9000A168A151B220A168A1177082D
:1022520083120313D901D9077608D801D8070130B0
:10226200D6020030031CD703D702003057020330D6
:102272000319560203183E293F29192940295208F9
:10228200D400D5015408D6005508D70000305702B3
:1022920003300319560203184F2950295229B32932
:1022A200B3295908CA01CA075808C901C907510800
:1022B200CC01CC075008CB01CB070A168A1553254F
:1022C2000A168A11831203134908A03E840083135D
:1022D20000080A168A154D230A168A11831203135F
:1022E2005908F101F1075808F001F0075108F3010C
:1022F200F3075008F201F2070A168A157E240A161D
:102302008A11710883120313D101D1077008D00119
:10231200D0070A30C9000030CA005908CC01CC07E6
:102322005808CB01CB070A168A1553250A168A11BB
:10233200831203134A08D901D9074908D801D807DB
:102342000130D6020030031CD703D7020130D2027B
:10235200003057020330031956020318B129B2297B
:102362005229B329033052020318B829B9290B2A7A
:102372005908CA01CA075808C901C9075108CC013E
:10238200CC075008CB01CB070A168A1553250A162B
:102392008A11831203134908A03E840083130008A4
:1023A2000A168A154D230A168A1183120313590835
:1023B200F101F1075808F001F0075108F301F307A2
:1023C2005008F201F2070A168A157E240A168A11AB
:1023D200710883120313D101D1077008D001D0070D
:1023E2005308013A031DF629F729FE292E300A1651
:1023F2008A154D230A168A11FE29831203135008E7
:10240200A03E8400831300080A168A154D230A167B
:102412008A110B2A080083120313EC13EB116D10BF
:10242200ED13ED106B10ED116B13EC106D13EB123D
:102432006B126D11DE0109305E02031C212A222A71
:10244200242A3E2A3E2A5E080A168A157D260A1684
:102452008A1183120313DC005E08203E84005C08AC
:10246200831380000130DC005C08DE0709305E0265
:10247200031C3C2A3D2A242A3E2A9130DC005C08B7
:10248200F4000A168A15B7210A168A118312031359
:10249200DD0002305D0203184F2A502A632A92306F
:1024A200DC005C08F4000A168A15B7210A168A11A4
:1024B20083120313DD0002305D02031C612A622ACB
:1024C2001D2B632A0B300A168A156A210A168A11F5
:1024D2006A2A83120313071A6F2A702AF92A913083
:1024E200DC005C08F4000A168A15B7210A168A1164
:1024F200FF3E83120313DD005D08F60091300A16D9
:102502008A1576220A168A11923083120313DC008E
:102512005C08F4000A168A15B7210A168A11FF3ED2
:1025220083120313DD005D08F60092300A168A1545
:1025320076220A168A110C300A168A156A210A16A0
:102542008A11913083120313DC005C08F4000A162E
:102552008A15B7210A168A1183120313DD0002308D
:102562005D02031CB52AB62ACA2A9130DC005C0837
:10257200F4000A168A15B7210A168A118312031368
:10258200DD000A305D020318C72AC82ACA2AEB14E2
:10259200CA2A9230DC005C08F4000A168A15B721B8
:1025A2000A168A1183120313DD0002305D02031C36
:1025B200DB2ADC2AF02A9230DC005C08F4000A16DE
:1025C2008A15B7210A168A1183120313DD000A3015
:1025D2005D020318ED2AEE2AF02A6D16F02A0A127D
:1025E2008A11DB230A168A1183120313EE15F92AC4
:1025F200871EFC2AFD2A012BEE1D002B012B6A2AC5
:10260200EE11F60191300A168A1576220A168A11FF
:10261200F60192300A168A1576220A168A110E30AF
:1026220083120313DC005C08B700B8010314B80D71
:102632001D2B6A2A6A2A1D2B08003B08093A031D32
:10264200232B242B4B2B252B86300A168A15142379
:102652000A168A11831203133508013EFB0000306B
:1026620003180130FC004330DC005C08FD000A1650
:102672008A1114200A168A11433083120313CE00E2
:102682000030CF00D001D1010A168A1509250A1699
:102692008A114B2B831203133B08031D512B782BFA
:1026A2003B080A3A0319562B572B782B3508DC00C6
:1026B2005C08F9003508203E8400831300080A16DE
:1026C2008A15F1260A168A118312031335080A168F
:1026D2008A156E270A168A113230FC000030FD007E
:1026E2000A168A15F3210A168A11782B782B83127F
:1026F2000313ED1C7D2B802B0A128A15A629DA2BD7
:10270200DA2B4708031D862BFA2B0130C702B501CD
:10271200FA2BFA2B073047020318902B912BFA2B36
:102722000130DC005C08C707B501FA2BFA2B35082B
:10273200031D9C2BFA2B0130B502FA2BFA2B093020
:1027420035020318A52BA62BFA2B0130DC005C08FE
:10275200B507FA2BFA2BFA2BEE14FA2B34083304B2
:102762000319B42BB52BFA2B0130B3020030031C32
:10277200B403B402FA2BFA2B0130B3070318B40ADC
:102782000030B407FA2B0530DC005C08B7000430D7
:10279200DC005C08B800C701B501FA2B0530DC008B
:1027A2005C08B7000630DC005C08B800C701FA2BF1
:1027B200FA2B3B08013A0319822B033A03198B2B9C
:1027C200013A0319982B073A0319A02B013A03196E
:1027D200FA2B033A0319AD2B013A0319AF2B0F3A27
:1027E2000319C42B013A0319BD2B033A0319CF2B4A
:1027F200FA2B3B08013A0319FF2B002C152C3B083E
:10280200023A0319052C062C152C3B08033A03192E
:102812000B2C0C2C152C3B08043A031D112C142CE8
:102822000A128A156328152C0C30DC005C08F000B3
:102832004708013E0A168A1586210A168A11831252
:102842000313DD0035085D07FE3EDE005E08F4007E
:102852000A168A15B7210A168A1183120313DF009A
:10286200E0015F08B3006008B400112C0A168A1553
:102872009E210A168A110A128A1104200A168A1146
:10288200003083120313D2000030D1009630D00002
:102892000030CF000A128A1109270A168A110A1675
:1028A2008A1576210A168A110A168A1550210A16E5
:1028B2008A110A168A1557210A168A110A168A11CE
:1028C2000C220A168A1183120313EB15682C0030AE
:1028D2000A168A15DC220A168A117108831203135A
:1028E200AA01AA077008A901A907CC30C9000030C3
:1028F200CA002A08F701F7072908F601F60764302B
:10290200F8000030F9000A168A151B220A168A11ED
:10291200770883120313CC01CC077608CB01CB07CF
:102922000A168A1553250A168A11831203134A08B6
:10293200B201B2074908B101B1076430FC000030AE
:10294200FD000A168A15F3210A168A11831203134F
:1029520031080A3EE60032080318013E003EE70055
:102962007830E8006808F4000A168A15B7210A16BA
:102972008A1183120313E900EA0167086A02031D40
:10298200C42C66086902031CC72CC82C072DEB1D3A
:10299200CB2CCC2C072D8715EC133208FC01FC073D
:1029A2003108FB01FB074330E6006608FD000A160A
:1029B2008A1114200A168A11831203136E1AE22C4A
:1029C200E32CF12C4230CE009830CF00D00103141A
:1029D200D00DD1010A168A1509250A168A11F12C81
:1029E200C7300A168A1514230A168A114330831235
:1029F2000313CE000030CF00D001D1010A168A1590
:102A020009250A168A11831203136E167830E6001E
:102A12006608F4000A168A15B7210A168A1183126B
:102A22000313E700E80132086802031D1A2D31087A
:102A3200670203181D2D1E2D462D6E1E212D222DDF
:102A4200462D87111130CE009830CF00D0010314EB
:102A5200D00DD1010A168A1509250A168A11DC3011
:102A6200FC000530FD000A168A15F3210A168A11A8
:102A720083120313EC17EB150A168A1550210A1656
:102A82008A11831203136E12462D0A168A116520CB
:102A92000A168A110A168A115A250A168A110A1268
:102AA2008A11F8200A168A11682C682C0A128A11D7
:102AB200002883120313EC1F5F2D602D142E3B0898
:102AC2000A3A0319652D662D142E0A128A15022060
:102AD2000A168A11831203133B08093A031D722D49
:102AE200732D752D6C15752D3B08031D792D142E34
:102AF2003B08FF3E203E84008313001C812D822D63
:102B0200842D6B15842D3B08FF3E203E8400801CE3
:102B12008B2D8C2D8E2DED168E2D3B08FF3E203EEB
:102B22008400001D952D962D982D6C17982D3B082D
:102B3200FF3E203E8400801D9F2DA02DA32DEC156D
:102B42006C16A32D3B08FF3E203E8400001EAA2DDA
:102B5200AB2DAD2D6E14AD2D0A168A1576210A16EF
:102B62008A11831203133B08083A0319B92DBA2DAF
:102B7200082E7E30DC005C08F4000A168A15B721A4
:102B82000A168A11013E83120313E1000030031872
:102B92000130E2007F30DC005C08F9006208FB01D2
:102BA200FB076108FA01FA077E300A168A15FB2331
:102BB2000A168A11831203133B08DC005C077E3E6F
:102BC200DD005D08F4000A168A15B7210A168A117B
:102BD200013E83120313E100003003180130E200CA
:102BE2003B08DC005C077F3EDD005D08F9006208FF
:102BF200FB01FB076108FA01FA073B08DE005E07EA
:102C02007E3E0A168A15FB230A168A11082E0A121C
:102C12008A11DB230A168A110A168A1550210A160E
:102C22008A11142E142E83120313EB19192E1C2E43
:102C32000A168A11AC2EEC1B1F2E202E192E6D1D8A
:102C4200232E262E0A168A11B12E192E192E5F2E28
:102C52000130AB070318AC0A0030AC079C302C06DD
:102C6200031D352E3F302B06031D382E392E472EDD
:102C72000130AD070318AE0A0030AE07AB01AC015C
:102C82000A168A1165200A168A11472E0530831208
:102C920003132D062E04031D4F2E502E5F2EEC1310
:102CA200EB11B7010314B70D0230DC005C08B80069
:102CB200AD01AE01EB116E115F2E5F2E071A622E6F
:102CC200632E6C2EEC1B662E672E292EEB196A2EB4
:102CD2006B2E292E6C2E6E1D6F2E702E822E6D196C
:102CE200732E742E822EEC13EB110E30DC005C0876
:102CF200B800BE010314BE0DAB01AC01AD01AE01C3
:102D0200822E6E19852E862E232E6D1D892E8A2ED9
:102D1200232E0330DC005C08B9000A168A158623CC
:102D22000A168A11093083120313DC005C08B90009
:102D32000A168A1586230A168A110E308312031385
:102D4200DC005C08B700B8010314B80DBE01BD0178
:102D5200232EB12EB12E3B080A3A0319FD2FB12EB4
:102D62006D1CB42EB52E452F072F072FE301E4016A
:102D720001306402003003196302031CC12EC22E0B
:102D8200C42E152F152FF60163080A168A1576220E
:102D92000A168A11013083120313E3070318E40AA7
:102DA2000030E40701306402003003196302031C9F
:102DB200DB2EDC2EC42E152F152F30082F040319FD
:102DC200E32EE42E152F0130AF020030031CB003B6
:102DD200B002152F152F0130AF070318B00A0030CB
:102DE200B007152F02302F063004031DF92EFA2EDC
:102DF200152FAF01B0010230DC005C08B7000430CF
:102E0200DC005C08B800152F152F152F3B08013A7E
:102E12000319B72E063A0319DE2E0E3A0319EC2EC9
:102E2200033A0319F32E152F3B08073A03191A2FF9
:102E32001B2F222F3B08093A031D202F212F452F3C
:102E4200222F8C300A168A1514230A168A1183122D
:102E520003133008D101D1072F08D001D007043065
:102E6200DC005C08D200D3010A168A1101210A167D
:102E72008A119630FC000030FD000A168A15F321F3
:102E82000A168A11452F452F83120313ED1F4A2F6D
:102E92004D2F0A168A11782BD72FD72F3508203EAF
:102EA200840003108313001C031403185C2F5F2F8C
:102EB2003508203E840083130014612F8313001011
:102EC200F12F831203133508203E8400031083136D
:102ED200801C03140318712F742F3508203E8400C0
:102EE20083138014762F83138010F12F8312031320
:102EF2003508203E840003108313001D03140318B9
:102F0200862F892F3508203E8400831300158B2FCE
:102F120083130011F12F831203133508203E84001E
:102F220003108313801D031403189B2F9E2F350853
:102F3200203E840083138015A02F83138011F12F6C
:102F4200831203133508203E840003108313001EEE
:102F520003140318B02FB32F3508203E84008313C7
:102F62000016B52F83130012F12F831203133508B5
:102F7200031DBC2FF12F0130B502F12FF12F0730C5
:102F820035020318C52FC62FF12F0130DC005C0873
:102F9200B507F12FF12F0430DC005C08B7000530D3
:102FA200DC005C08B800B501F12FF12F3B08013AB3
:102FB20003194F2F033A0319622F013A0319772F8E
:102FC200073A03198C2F013A0319A12F023A031968
:102FD200B62F0E3A0319C02F033A0319CC2FF12F43
:102FE200831203133B08073A0319FA2F0A168A11B0
:102FF2001E2B0A168A11252B0A128A15FD2F503410
:103002005234453450344134523449344E344734C6
:10301200203443344F344634463445344534003446
:103022004834413456344534203441342034483411
:103032004F345434203453344934503420342134FE
:10304200003443344F344634463445344534203416
:1030520043344C34453441344E3449344E3447348D
:10306200003443344F3446344634453445342034F6
:103072004434493443344134543449344F344E3463
:1030820000344C344F3457342034543445344D34A6
:103092005034453452344134543455345234453426
:1030A2000034203450345234453450344134523494
:1030B20049344E3447342034543445344134003496
:1030C20043344F344E344634493447345534523401
:1030D200453420344D344F34443445340034443480
:1030E200493443344134543449344F344E34203417
:1030F200443445344C344134593400344D34493429
:103102004C344B34203443344C34453441344E3403
:1031120049344E344734003443344F3455344E34FA
:103122005434203444344934533450344C344134CC
:1031320059340034543445344134203443344C340B
:10314200453441344E3449344E34473400345434D7
:1031520045344134203444344934433441345434C2
:1031620049344F344E3400345034523445345034A0
:10317200413452344134543449344F344E3400349F
:1031820043344F3455344E3454342034523445345D
:10319200533445345434003450344134533453346A
:1031A20057344F34523444343A3420340034533494
:1031B20045344C3445344334543449344F344E341A
:1031C200003448344F345434203457344134543466
:1031D200453452340034433455345034203443346B
:1031E2004F3455344E34543400344D3445344E3417
:1031F20055343A34203400344C344F34413444345E
:1032020020340034543449344D3445343A34003493
:103212005334453443340034FF1B172983137F187A
:1032220083170008840A0319FF0A08007F087F3900
:0C3232008A000408840A0319FF0A8200C5
:1032A00001300A168A156A210A168A150800843028
:1032B000831603139F008130831203139F000800BD
:1032C00030343134323433343434353436343734C2
:1032D00038343934F0006C29831203130C1E712921
:1032E00072296C297329700899000800831203134E
:1032F00088146430FC000030FD000A168A15F321A2
:103300000A168A158312031388100800F300F201CD
:10331000731C8B298C2991297008F1007108F20720
:1033200091290310F00D0310F30CF308031D9929E4
:103330009A2988299B2972089D290800073083163D
:1033400003139F0007309C0001308500FF3086008A
:103350008801303087008901831203138501FF3013
:10336000860030308700FD30880089010800640045
:10337000831603178C18BD29BE29B729BF297408E5
:10338000831203178D003F30F5007508831603176D
:103390008C050C1403100C180314003003180130B2
:1033A000831203170C08D4290800EB01EC01ED018E
:1033B000EE0183132030840049300A128A11F82765
:1033C0000A168A15AA30FD001930FE006030FF0091
:1033D000A03084000A168A1105200A168A15830176
:1033E0000A168A11372C043083120313C9004908C6
:1033F000CA00AF30C9004908CB00FF29FF290130BE
:10340000CB02031D042A052AFF29062A0130CA021D
:10341000031D0B2A0C2AF9290D2A0130FC02003069
:10342000031CFD03FD027D087C04031D182A192AD4
:10343000F3291A2A0800FA01FB011E2A761C212A08
:10344000222A282A7808FA070318FB0A7908FB07BA
:1034500001300310F80DF90DFF3E031D292A01303C
:103460000310F70CF60CFF3E031D302A7708760494
:10347000031D3B2A3C2A1E2A3D2A7B08F701F70739
:103480007A08F601F607442A0800F8007808F200E6
:103490007208F9004C2A4C2A790884000130F90797
:1034A00083138008031D552A562A4C2A572A780868
:1034B000F2000030F300F209F309F20A0319F30AEB
:1034C0007908F4000030F50072087407F6007308FC
:1034D0000318730A7507F7007608FF3EF0007708B7
:1034E0000318013EFF3EF100752A0800F800782A13
:1034F000831603178C187D2A7E2A782A7F2A78085B
:10350000831203178D0076088C003F30F700770890
:10351000831603178C058312031303108B1F912A44
:10352000922A932A03148B13831603170C15553014
:103530008D00AA308D008C140C1183120313031C10
:10354000A22AA32AA62A8B17A62AA62A0800831233
:103550000313CE004E08C9004908F4000A168A1564
:10356000B7210A168A1583120313CA007C08CB0000
:103570004B08F4000A168A15B7210A168A15831219
:103580000313CC00CD014C08F6004D08F700FF30C6
:10359000F8000030F9000A168A151B220A168A154F
:1035A000831203134A087607FC0000300318013029
:1035B0007707FD00DB2A0800F400C730F20072082C
:1035C000831203139F057408F20002300310F20DFA
:1035D000FF3E031DE62A0310720DF30073089F04DB
:1035E0004130F300EE30F200F20BF42AF30BF42A30
:1035F0006400831203131F15FD2A1F19002B012BD2
:10360000FD2A022B1E08F200F3017208F300F201FA
:10361000831603131E087207F000003003180130F0
:103620007307F100132B080083120313CD004D081C
:10363000F0398800081188150530FC000030FD00C5
:103640000A168A15F3210A168A15831203138811A4
:103650000530FC000030FD000A168A15F3210A1619
:103660008A15831203134D08CC0003300310CC0DD0
:10367000FF3E031D362B03104C0D880008118815E2
:103680000530FC000030FD000A168A15F3210A16E9
:103690008A15831203138811080083120313CD00C7
:1036A0004D08F0398800081588150530FC000030F9
:1036B000FD000A168A15F3210A168A1583120313D0
:1036C00088110530FC000030FD000A168A15F32130
:1036D0000A168A15831203134D08CC000330031019
:1036E000CC0DFF3E031D6F2B03104C0D88000815F9
:1036F00088150530FC000030FD000A168A15F321FC
:103700000A168A1583120313881108009D2B0511D0
:10371000051205110512BF2B8512BF2B0710BF2BF9
:103720008710BF2B0910BF2B0711BF2B8910BF2B90
:103730000911BF2B8711BF2BBF2B8312031339082D
:10374000013A0319872B033A0319892B013A03190C
:103750008C2B073A03198E2B013A0319902B033A4D
:103760000319922B013A0319942B0F3A0319962B44
:10377000013A0319982B033A03199A2BBF2B08001F
:10378000D82B05150512FA2B05110516FA2B8516EF
:10379000FA2B0714FA2B8714FA2B0914FA2B0715A6
:1037A000FA2B8914FA2B0915FA2B8715FA2BFA2B09
:1037B000831203133A08013A0319C12B033A031980
:1037C000C42B013A0319C72B073A0319C92B013A35
:1037D0000319CB2B033A0319CD2B013A0319CF2B35
:1037E0000F3A0319D12B013A0319D32B033A0319CA
:1037F000D52BFA2B0800FC0001307B0200300319A6
:103800007A020318042C052C122C7A088312031355
:10381000C9004908F6007C080A168A1576220A169D
:103820008A153A2C7A08013E83120313C90049080D
:10383000F6007C080A168A1576220A168A15790877
:1038400083120313C9004908F4000A168A15B72128
:103850000A168A1583120313CA007A084A07013E22
:10386000CB004B08F60079080A168A1576220A164C
:103870008A153A2C08000A168A15C0230A168A15DA
:10388000831203134D08F701F7074C08F601F607FA
:103890006430F8000030F9000A168A151B220A1657
:1038A0008A157708FD01FD077608FC01FC070A165A
:1038B0008A15F3210A168A150A168A1586230A160E
:1038C0008A15831203134F08F701F7074E08F60114
:1038D000F6076430F8000030F9000A168A151B223A
:1038E0000A168A157708FD01FD077608FC01FC071A
:1038F0000A168A15F3210A168A1508007108700441
:103900000319832C842CBA2CF5010314F50D942C87
:1039100001300310F00DF10DFF3E031D892C013025
:10392000F4007408F507942CF11F972C982C882C20
:103930009A2C9A2C71087302031DA02C7008720235
:10394000031CA32CA42CAB2C7008F2027108031CDE
:10395000F303F302AB2C01300310F10CF00CFF3E2B
:10396000031DAC2C0130F502031DB72CB82C9A2C8A
:10397000BA2CBA2C7308F101F1077208F001F007B4
:10398000C12C080083120313CC004C08FA007A08FB
:10399000CA004C080A168A1545220A168A157008AC
:1039A000831203134C07FF3EFA007A08CB00012D67
:1039B0004C088400831300082D3A031DE02CE12CF1
:1039C000E62C0130FA007A08CC07E62C4A0884007D
:1039D0000008FA007A08C9004B0884000008FA00C1
:1039E0004A0884007A0880004908FA004B088400DD
:1039F0007A0880000130FA007A08CA070130CB0249
:103A0000012D4B084A02031C062D072DD82C082D2A
:103A10000800831203135008013A031D102D112DC5
:103A2000182D01300A168A1514230A168A15182D26
:103A3000831203135108013A031D1F2D202D412D20
:103A4000C0300A168A1514230A168A15412D412DF5
:103A5000831203134F08FF004E0884000A168A15CC
:103A60000D210A168A150A168A154D230A168A157B
:103A7000013083120313CE070318CF0A0030CF079B
:103A8000412D831203134F08FF004E0884000A16CD
:103A90008A150D210A168A150038031D502D512D47
:103AA000282D522D080083120313CD01CE014A08A0
:103AB000490403195C2D5D2D9B2DCF010314CF0DFF
:103AC0006D2D01300310C90DCA0DFF3E031D622D7F
:103AD0000130FC007C08CF076D2DCA1F702D712DA1
:103AE000612D732D732D01300310CD0DCE0DFF3ED2
:103AF000031D742D4A084C02031D802D49084B02FA
:103B0000031C832D842D8C2D4908CB024A08031CED
:103B1000CC03CC024D148C2D01300310CA0CC90CFF
:103B2000FF3E031D8D2D0130CF02031D982D992DD1
:103B3000732D9B2D9B2D4E08CA01CA074D08C90144
:103B4000C907A22D0800F601F31FA72DA82DB12D3E
:103B5000F209F309F20A0319F30AF6010314F60D48
:103B6000B12DF11FB42DB52DBB2DF009F109F00ACF
:103B70000319F10ABB2D710870040319C02DC12D62
:103B8000F72DF5010314F50DD12D01300310F00DC3
:103B9000F10DFF3E031DC62D0130F4007408F5073A
:103BA000D12DF11FD42DD52DC52DD72DD72D710891
:103BB0007302031DDD2D70087202031CE02DE12D40
:103BC000E82D7008F2027108031CF303F302E82DDC
:103BD00001300310F10CF00CFF3E031DE92D013004
:103BE000F502031DF42DF52DD72DF72DF72D7608B1
:103BF000031DFB2D012EF209F309F20A0319F30A42
:103C0000012E7308F101F1077208F001F007082E88
:103C10000800F601F11F0D2E0E2E172EF009F109E6
:103C2000F00A0319F10AF6010314F60D172EF31F1B
:103C30001A2E1B2E252EF209F309F20A0319F30A94
:103C40000130F4007408F606252EF701F80171081A
:103C5000700403192C2E2D2E6B2EF5010314F50D77
:103C60003D2E01300310F00DF10DFF3E031D322EED
:103C70000130F4007408F5073D2EF11F402E412E4F
:103C8000312E432E432E01300310F70DF80DFF3E69
:103C9000031D442E71087302031D502E700872021A
:103CA000031C532E542E5C2E7008F2027108031C64
:103CB000F303F30277145C2E01300310F10CF00CC7
:103CC000FF3E031D5D2E0130F502031D682E692E97
:103CD000432E6B2E6B2E7608031D6F2E752EF70963
:103CE000F809F70A0319F80A752E7808F101F107A7
:103CF0007708F001F0077C2E0800F9007908F6003B
:103D00007608F4000A168A15B7210A168A15F700F4
:103D1000003077180130F800F80DF80D8312031306
:103D200036087806FB397806B6007908F60076087A
:103D3000F4000A168A15B7210A168A15F700003012
:103D4000F7180130F800F80DF80DF80D8312031381
:103D500036087806F7397806B6007908F60076084E
:103D6000F4000A168A15B7210A168A15F7000030E2
:103D700077190130F8008312031336087806FE39EC
:103D80007806B6007908F6007608F4000A168A1557
:103D9000B7210A168A15F7000030F7190130F8002C
:103DA000F80D8312031336087806FD397806B6003D
:103DB0007908F6007608F4000A168A15B7210A1663
:103DC0008A15F7000030771A0130F800F80E8312D8
:103DD000031336087806EF397806B6003608F02E59
:103DE000080083120313D300D4015319F82EF92EBF
:103DF000022F5408FE39FA00FB017A08C9007B083B
:103E0000CA00072F01305404C9000030CA00490815
:103E1000FA007A08D400D3190E2F0F2F182F540848
:103E2000FD39FA00FB017A08CB007B08CC001D2F7E
:103E300002305404CB000030CC004B08FA007A0862
:103E4000D4005318242F252F2E2F5408FB39FA00A5
:103E5000FB017A08CD007B08CE00332F04305404D8
:103E6000CD000030CE004D08FA007A08D400D318F7
:103E70003A2F3B2F442F5408F739FA00FB017A08F8
:103E8000CF007B08D000492F08305404CF00003009
:103E9000D0004F08FA007A08D400531A502F512F3F
:103EA0005A2F5408EF39FA00FB017A08D1007B0839
:103EB000D2005F2F10305404D1000030D2005108DE
:103EC000FA007A08D4005408FA007A08F600790853
:103ED0000A168A1576220A168A1508008312031319
:103EE000CF004F080A168A157D260A168A158312F6
:103EF0000313CE004E08B600C3300A168A151423E9
:103F00000A168A1583120313361C872F882F8F2FCA
:103F100059300A168A154D230A168A15952F4E30E8
:103F20000A168A154D230A168A15C5300A168A15EF
:103F300014230A168A1583120313B61CA02FA12F6F
:103F4000A82F59300A168A154D230A168A15AE2F46
:103F50004E300A168A154D230A168A15C7300A16DE
:103F60008A1514230A168A1583120313361DB92FD6
:103F7000BA2FC12F59300A168A154D230A168A15F1
:103F8000C72F4E300A168A154D230A168A15C930D6
:103F90000A168A1514230A168A1583120313B61DEE
:103FA000D22FD32FDA2F59300A168A154D230A162D
:103FB0008A15E02F4E300A168A154D230A168A15E7
:103FC000CB300A168A1514230A168A158312031396
:103FD000361EEB2FEC2FF32F59300A168A154D237E
:103FE0000A168A15F92F4E300A168A154D230A161D
:103FF0008A15CD300A168A1514230A168A15080068
:02400E0032FF7F
:00000001FF
