:040000008A11112828
:10000800FE00030E83120313A0000408A1000A08CF
:10001800A2007F08A3008A11D52B8A11872C0030F3
:100028008A000408840A82070034203420344234C9
:100038004C34413443344B34203443344F34463405
:10004800463445344534003420344E344F34523429
:100058004D3441344C34203443344F3446344634E0
:10006800453445340034203420344C344934473442
:1000780048345434203443344F34463446344534B9
:10008800453400342034203420344E344F34523434
:100098004D3441344C3420345434453441340034E4
:1000A80020342034433441344634453420344434F5
:1000B800453420345634493445340034203420340F
:1000C800203442344C34413443344B342034543497
:1000D8004534413400342034203420344C344934FD
:1000E800473448345434203454344534413400348B
:1000F80020342034203448344F3454342034573496
:1001080041345434453452340034203420342034BB
:1001180042344534563445345234413447344534F6
:100128005334003420342034203420342034203414
:1001380045345834543452344134003450345234F1
:1001480045345034413452344134543449344F34B2
:100158004E340034203420342034203420342034E9
:100168004D3449344C344B340034533445344C34D6
:1001780045344334543449344F344E3400344334D2
:100188004F344E34543449344E34553445340034A5
:100198004434493443344134543449344F344E346C
:1001A8000034FD007929F8010314F80DF9013C30F9
:1001B8008A1128238A11F801F9010314F90D713005
:1001C8008A1128238A118829F8010314F80DF901E6
:1001D80010308A1128238A118829F8010314F80D90
:1001E800F9012E308A1128238A118829F80103146D
:1001F800F80DF9011F308A1128238A118829F8017E
:100208000314F80DF90157308A1128238A11882917
:10021800F8010314F80DF90101308A1128238A1115
:100228008829F8010314F80DF9014A308A112823A6
:100238008A118829F8010314F80DF90196308A11FA
:1002480028238A118829F8010314F80DF90164306C
:100258008A1128238A118829F8010314F80DF90155
:100268007E308A1128238A118829F8010314F80D91
:10027800F901AB308A1128238A11F801F901031416
:10028800F90D8A308A1128238A1188298030FC00C8
:100298007C08F00000308A11DA228A11F801F9018D
:1002A800B4308A1128238A1188298030FC007C0800
:1002B800F00000308A11DA228A11F801F901A13020
:1002C8008A1128238A113A30FC007C08F00001309A
:1002D8008A11DA228A118C30FC007C08F000003088
:1002E8008A11DA228A11882988297D08FF3E031C91
:1002F800882984000D3004020318882904308A00F4
:100308000310040D5C3E8200080083120313AE0143
:10031800A71F8F2990299F29A409A509A609A7091C
:10032800A40A0319A50A0319A60A0319A70AAE0104
:100338000314AE0D9F29AB1FA229A329B329A8092D
:10034800A909AA09AB09A80A0319A90A0319AA0A3B
:100358000319AB0A0130AC002C08AE06B3290030F3
:10036800B2000030B1000030B0000030AF00270804
:100378002604250424040319C229C329172AAD0118
:100388000314AD0DD5290130AC000310A40DA50D43
:10039800A60DA70DAC0BC9290130AC002C08AD0780
:1003A800D529A71FD829D929C729DB29DB29013055
:1003B800AC000310AF0DB00DB10DB20DAC0BDD29C3
:1003C80027082B02031DF22926082A02031DF229F9
:1003D80025082902031DF22924082802031CF529EF
:1003E800F629062A2408A8022508031C250FA902B5
:1003F8002608031C260FAA022708031C270FAB0296
:100408002F14062A01300310A70CA60CA50CA40C67
:10041800FF3E031D072A0130AD02031D142A152AC9
:10042800DB29172A172A2E08031D1B2A272AAF099A
:10043800B009B109B209AF0A0319B00A0319B10A20
:100448000319B20A272A3208A7003108A600300883
:10045800A5002F08A400302A0800831203130512F0
:1004680085123230A4000030A5008A11FE238A11BB
:100478008312031307080F39303887008516851251
:100488001A30AD000030AE004A2A4A2A0130AD02C7
:100498000030031CAE03AE022E082D04031D552A9E
:1004A800562A4A2A572A07080F39203887008516FE
:1004B80085122830AC002C08A40000308A118C2248
:1004C8008A110C3083120313AC002C08A4000030EE
:1004D8008A118C228A1183120313A4010314A40D18
:1004E80000308A118C228A11023083120313A4006F
:1004F8000030A5008A11FE238A11063083120313E7
:10050800AC002C08A40000308A118C228A11080043
:1005180083120313AB002B18922A962A8312031313
:100528000516992A8312031305120530A700003017
:10053800A8009F2A9F2A0130A7020030031CA803A5
:10054800A80228082704031DAA2AAB2A9F2AAC2A36
:10055800F0302405A50007080F3925048700851603
:1005680085122408A50004300310A50DFF3E031DC5
:10057800B82AF0302505A60007080F392604870099
:10058800851685120530A9000030AA00CC2ACC2A8D
:100598000130A9020030031CAA03AA022A08290470
:1005A800031DD72AD82ACC2AD92A0800F3007318A1
:1005B800DE2AE22A831203130516E52A831203139F
:1005C80005120530F4000030F500EB2AEB2A013063
:1005D800F4020030031CF503F50275087404031DCA
:1005E800F62AF72AEB2AF82AF0307005F100831270
:1005F800031307080F3971048700851685127008E0
:10060800F10004300310F10DFF3E031D062BF030FE
:100618007105F20007080F397204870085168512E4
:100628000530F6000030F7001A2B1A2B0130F602BD
:100638000030031CF703F70277087604031D252B07
:10064800262B1A2B272B0800FB007808013A031DDC
:100658002E2B2F2B3E2BF0010314F00D00308A11A6
:10066800DA228A110230F0000030F1008A112124C8
:100678008A113E2B7908013A031D432B442B662B24
:10068800C030FA007A08F00000308A11DA228A11A4
:100698000230F0000030F1008A1121248A11662B03
:1006A800662B7B0884008A1113208A11FA007A08C5
:1006B800F00001308A11DA228A110130FA007A0832
:1006C800FB07662B7B0884008A1113208A110038E7
:1006D800031D6F2B702B552B712B080083120313EE
:1006E8003308B7003408B8003508B9003608BA002E
:1006F80004300310B70DB80DB90DBA0DFF3E031D38
:100708007D2B3A08A7003908A6003808A500370845
:10071800A4000030AB007A30AA001230A9000030E3
:10072800A8008A1189218A11831203132408FF3E25
:1007380083160313990018151812831203139817B8
:1007480018168316031398168B170B178C160800A8
:100758008A1142248A118A1131228A1100308312A7
:100768000313B6000030B5009630B4000030B30073
:100778008A1172238A1183120313A4010314A40D8E
:1007880000308A118C228A11023083120313A400CC
:100798000030A5008A11FE238A11D22BD22B8A1190
:1007A80011288C1ED82BD92BF12B981CDC2BDD2B78
:1007B800E12B18121816E12BE12B8C1EE42BE52BEC
:1007C800E12BE62B1A088A11D5208A11831203130C
:1007D8001A088A1196248A11F12B8312031323080D
:1007E800FF0022088A0021088400200E8300FE0EE4
:1007F8007E0E0900853083120313A6000030A7007F
:10080800062C062C0130A6020030031CA703A70201
:1008180027082604031D112C122C062C132C01303A
:10082800A4020030031CA503A50225082404031D07
:100838001E2C1F2CFE2B202C08008530F2000030C7
:10084800F300272C272C0130F2020030031CF3039D
:10085800F30273087204031D322C332C272C342C1A
:100868000130F0020030031CF103F102710870043A
:10087800031D3F2C402C212C412C08008316031308
:100888000F178F160F16831203179E019F018316E9
:10089800031385018701151581138312031387013B
:1008A8006430A4000030A5008A11FE238A110800D4
:1008B8008A11D7288A11E8288A11F1288A11FA287A
:1008C8008A1103298A110C298A1115298A111E29CE
:1008D8008A1127298A1130298A1139298A114A2926
:1008E8008A1159297E088A007F0882008A11762495
:1008F8008A118000840A04087D0603190034FF0A5F
:100908000319FE0A7A2C83134530FD000430FE00DB
:10091800A230FF003B3084008A117A248A118301B7
:100928008A11AC2BF000982C831203130C1E9D2CFB
:100938009E2C982C9F2C7008990008003034313474
:100948003234333434343534363437343834393453
:02400E00F4FCC0
:00000001FF
