:100000008A11542E00308A000408840A82070034C2
:1000100050344934433443344934523443345534EE
:10002000493454342E3443344F344D34003457342F
:1000300065346C3463346F346D3465342034543437
:040040006F340034E5
:100CA80083018A11C72EF0010314F00D00308A1158
:100CB800F4268A110230F0000030F1008A118126F2
:100CC8008A110800831603130F168F160F17831245
:100CD80003179E019F0107308316031385008701C0
:100CE800151581138312031387016430F000003057
:100CF800F1008A1181268A1108008530F20000303F
:100D0800F300872E872E0130F2020030031CF30314
:100D1800F30273087204031D922E932E872E942ECD
:100D28000130F0020030031CF103F1027108700475
:100D3800031D9F2EA02E812EA12E0800FA0001303F
:100D4800F8027A08013A031DAA2EAB2EB52E7808B0
:100D5800803EF9007908F00000308A11F4268A11E3
:100D6800C62E7A08023A031DBA2EBB2EC62E780864
:100D7800C03EF9007908F00000308A11F4268A1183
:100D8800C62EC62E08008A1166268A118A11942753
:100D98008A110430FD007D08F80001308A11A2266E
:100DA8008A1110308A1142278A110230FD007D080D
:100DB800F80002308A11A2268A1101308A114227CE
:100DC8008A11E62E83120313051DEB2EEC2EEE2E50
:100DD8008715E62E8711E62EE62EE62E8A110028C4
:100DE800F7007718F82EFC2E831203130714FF2E32
:100DF8008312031307100530F3000030F400052FA9
:100E0800052F0130F3020030031CF403F4027408C8
:100E18007304031D102F112F052F122FF0307005AA
:100E2800F1008312031307080F39710487000715AF
:100E380007117008F10004300310F10DFF3E031D87
:100E4800202FF0307105F20007080F39720487006F
:100E5800071507110530F5000030F600342F342F40
:100E68000130F5020030031CF603F602760875041B
:100E7800031D3F2F402F342F412F0800F900882FE2
:100E8800742F1030F8007808F00000308A11F4262A
:100E98008A11832FF0010314F00D00308A11F42613
:100EA8008A110230F0000030F1008A1181268A117F
:100EB800832FC030F8007808F00000308A11F4263B
:100EC8008A11832F790884008A1102208A11F80078
:100ED8007808F00001308A11F4268A11832F832FB5
:100EE800790884008A1102208A11083A0319452FCB
:100EF800023A03195D2F063A03194E2F662F013067
:100F0800F8007808F907882F790884008A110220E8
:100F18008A110038031D912F922F742F932F0800E8
:100F2800831203130710071187103230F0000030C6
:100F3800F1008A1181268A118312031307080F39D9
:100F480030388700071507110530F0000030F10030
:100F58008A1181268A1183120313071507111A3083
:100F6800F9000030FA00B92FB92F0130F90200302A
:100F7800031CFA03FA027A087904031DC42FC52F4B
:100F8800B92F83120313071507111A30FB0000301D
:100F9800FC00CF2FCF2F0130FB020030031CFC03D5
:100FA800FC027C087B04031DDA2FDB2FCF2FDC2FFC
:100FB8008312031307080F39203887000715071114
:100FC8002830F8007808F00000308A11F4268A11D9
:100FD8000C30F8007808F00000308A11F4268A11E5
:100FE8008A1157268A110630F8007808F000003078
:080FF8008A11F4268A11080099
:02400E00F4FCC0
:00000001FF
