:100000000A168A153D2964008001840A0406031932
:1000100000340406042883120313C00147280A3061
:10002000F0000030F1007C08F301F3077B08F201D7
:10003000F2070A168A1598240A128A117008303EAF
:1000400083120313CD0040087D07CE004E088400C4
:100050004D08831380000A30F0000030F1007C0866
:10006000F301F3077B08F201F2070A168A15FE2452
:100070000A128A117108FC01FC077008FB01FB07DA
:10008000013083120313CD004D08C00747287C08B8
:100090007B04031D4C284D280F284E2840087D075F
:1000A000CD004D088400831380017D080A168A154F
:1000B00005240A128A11080083120313061C612802
:1000C00062288628861C652866288628061D6928D9
:1000D0006A288628861D6D286E288628061E7128A7
:1000E00072288628861E752876288628061F792875
:1000F0007A288628861F7D287E288628071E812844
:1001000082288628871A85288628E828871A892839
:100110008A288E28BB010314BB0D8E28071A91284C
:10012000922897280230F0007008BB009728061824
:100130009A289B28A0280330F0007008BB00A02854
:100140008618A328A428A9280430F0007008BB0052
:10015000A9280619AC28AD28B2280530F00070088F
:10016000BB00B2288619B528B628BB280630F00097
:100170007008BB00BB28061ABE28BF28C428073059
:10018000F0007008BB00C428861AC728C828CD28EC
:100190000930F0007008BB00CD28061BD028D128FC
:1001A000D6280830F0007008BB00D628861BD92856
:1001B000DA28E8280A30F0007008BB006E1DE1283C
:1001C000E228E4286E11E8286E15E828E828E828D7
:1001D0003B080A3A0319ED28EE28F7283B08F000FF
:1001E0007008C8003B08F0007008BF00F72808003E
:1001F0001429EC135B296D105B29EB115B29ED13BE
:100200005B29ED105B296B105B29ED115B296B13EA
:100210005B29EC105B296D135B29EB125B296B12D8
:100220005B296D115B295B29831203133708013A9F
:100230000319F928033A0319FB28013A0319FD2889
:10024000073A0319FF28013A03190129033A031950
:100250000329013A031905290F3A03190729013A1D
:1002600003190929023A03190B29073A03190D2921
:10027000013A03190F29033A031911295B295B2954
:10028000EC1784296D148429EB158429ED17842932
:10029000ED1484296B148429ED1584296B178429A6
:1002A000EC1484296D178429EB1684296B16842994
:1002B0006D15842984293808013A03194029033A25
:1002C00003194229013A03194429073A0319462917
:1002D000013A03194829033A03194A29013A031933
:1002E0004C290F3A03194E29013A03195029023AB1
:1002F00003195229073A03195429013A03195629B7
:10030000033A031958298429EC1F8729882994293D
:100310003C08380603198D298E2994290A168A1556
:100320005B210A128A119429831203136D1C9929E7
:100330009A29AE293C08380603199F29A029AE291D
:100340005630CE009130CF00D0010314D00DD10132
:100350000A128A1500200A128A11AE298312031389
:10036000ED1FB329B429F4293C0838060319B9292B
:10037000BA29F4296130CE009030CF00D0010314A7
:10038000D00DD1010A128A1500200A128A11643098
:10039000FC000030FD000A168A157A210A128A1123
:1003A000893083120313CE009130CF00D0010314A3
:1003B000D00DD1010A128A1500200A128A11863046
:1003C0000A168A159B220A128A1131300A168A15DA
:1003D000D4220A128A118312031335080A168A15C9
:1003E00063260A128A11F42983120313ED1CF929DA
:1003F000FA29462A3C0838060319FF29002A462A0A
:1004000001300A168A159B220A128A116C30831257
:100410000313CE009130CF00D001D1010A128A150A
:1004200000200A128A116A3083120313CE00903022
:10043000CF00D001D1010A128A1500200A128A11B8
:100440006430FC000030FD000A168A157A210A1279
:100450008A110A3083120313DA005A08F4000A16CC
:100460008A151F210A128A1183120313DB00DC0193
:100470005B08B3005C08B400BB010314BB0D013082
:100480000A168A159B220A128A11462A831203131E
:100490006B1C4B2A4C2A862A3C0838060319512A21
:1004A000522A862A3230CE009030CF00D001031479
:1004B000D00DD1010A128A1500200A128A11963035
:1004C00083120313CE009130CF00D001D101031469
:1004D000D10D0A128A1500200A128A117630831271
:1004E0000313DA005A08F4000A168A151F210A12AB
:1004F0008A1183120313DB00DC015B08B3005C0884
:10050000B4000230DA005A08BB00862AED1D892AA1
:100510008A2AC42A3C08380603198F2A902AC42A3A
:100520000B30CE009130CF00D0010314D00DD1019B
:100530000A128A1500200A128A11963083120313B8
:10054000CE009130CF00D001D1010314D10D0A1299
:100550008A1500200A128A11773083120313DA00F9
:100560005A08F4000A168A151F210A128A118312EA
:100570000313DB00DC015B08B3005C08B40002304D
:10058000DA005A08BB00C42A6D1FC72AC82AF32AFA
:100590003C0838060319CD2ACE2AF32A4630CE006D
:1005A0009030CF00D0010314D00DD1010A128A156A
:1005B00000200A128A11783083120313DA005A08D5
:1005C000F4000A168A151F210A128A1183120313D6
:1005D000DB00DC015B08B3005C08B4000230DA0029
:1005E0005A08BB00F32A6B1FF62AF72A312B3C0866
:1005F00038060319FC2AFD2A312B9D30CE0090309D
:10060000CF00D0010314D00DD1010A128A150020A9
:100610000A128A11963083120313CE009130CF0054
:10062000D001D1010314D10D0A128A1500200A123B
:100630008A11793083120313DA005A08F4000A167B
:100640008A151F210A128A1183120313DB00DC01B1
:100650005B08B3005C08B4000230DA005A08BB0043
:10066000312BEC1C342B352B6F2B3C08380603192F
:100670003A2B3B2B6F2B1B30CE009130CF00D0019B
:100680000314D00DD1010A128A1500200A128A1112
:10069000963083120313CE009130CF00D001D101E8
:1006A0000314D10D0A128A1500200A128A11933000
:1006B00083120313DA005A08F4000A168A151F2160
:1006C0000A128A1183120313DB00DC015B08B300FA
:1006D0005C08B4000230DA005A08BB006F2BEB1E36
:1006E000722B732BB42B3C0838060319782B792B0B
:1006F000B42B7630CE009130CF00D0010314D00D52
:10070000D1010A128A1500200A128A11C8300A166D
:100710008A159B220A128A117F3083120313DA0092
:100720005A08FC007E300A168A152E220A128A11F7
:100730007D0883120313D101D1077C08D001D007B3
:100740000530DB005B08D200D3010A168A15F526B6
:100750000A128A113230FC000030FD000A168A1598
:100760007A210A128A11B42B831203136B1EB92B40
:10077000BA2BD42B3C0838060319BF2BC02BD42B23
:100780004A30CE009130CF00D0010314D00DD101FA
:100790000A128A1500200A128A11073083120313E5
:1007A000DA005A08BB00D42BB801B7013808DA00C8
:1007B0005A08BC000800831203136B1DE02BE12BC9
:1007C000292C0630B900D2005208BA000C30D200F1
:1007D0005208F00048080A168A15EE200A128A11FB
:1007E000FE3E83120313D3005308F4000A168A1541
:1007F0001F210A128A1183120313D400D501540851
:10080000CC005508CD000C30D6005608F000480842
:100810000A168A15EE200A128A11FF3E831203136C
:10082000D7005708F4000A168A151F210A128A11E8
:1008300083120313D800D9015808CE005908CF00FD
:100840000A168A15C2230A128A11831203136B1126
:10085000292CED1E2C2C2D2C742C0830B900D20024
:100860005208BA000C30D2005208F00048080A16AC
:100870008A15EE200A128A1183120313D30053083B
:10088000F4000A168A151F210A128A118312031313
:10089000D400D5015408CC005508CD000C30D6004A
:1008A0005608F00048080A168A15EE200A128A1126
:1008B000013E83120313D7005708F4000A168A1565
:1008C0001F210A128A1183120313D800D901580874
:1008D000CE005908CF000A168A15C2230A128A11BF
:1008E00083120313ED12742C6C1F772C782CC02C00
:1008F0000330B900D2005208BA000C30D2005208BE
:10090000F00048080A168A15EE200A128A11023EE3
:1009100083120313D3005308F4000A168A151F210B
:100920000A128A1183120313D400D5015408CC0093
:100930005508CD000C30D6005608F00048080A16BD
:100940008A15EE200A128A11033E83120313D70080
:100950005708F4000A168A151F210A128A118312F9
:100960000313D800D9015808CE005908CF000A1641
:100970008A15C2230A128A11831203136C13C02C26
:10098000EC1DC32CC42C0C2D0130B900D200520830
:10099000BA000C30D2005208F00048080A168A1536
:1009A000EE200A128A11043E83120313D300530867
:1009B000F4000A168A151F210A128A1183120313E2
:1009C000D400D5015408CC005508CD000C30D60019
:1009D0005608F00048080A168A15EE200A128A11F5
:1009E000053E83120313D7005708F4000A168A1530
:1009F0001F210A128A1183120313D800D901580843
:100A0000CE005908CF000A168A15C2230A128A118D
:100A100083120313EC110C2D6E1C0F2D102D582D6D
:100A20000930B900D2005208BA000C30D200520886
:100A3000F00048080A168A15EE200A128A11063EAE
:100A400083120313D3005308F4000A168A151F21DA
:100A50000A128A1183120313D400D5015408CC0062
:100A60005508CD000C30D6005608F00048080A168C
:100A70008A15EE200A128A11073E83120313D7004B
:100A80005708F4000A168A151F210A128A118312C8
:100A90000313D800D9015808CE005908CF000A1610
:100AA0008A15C2230A128A11831203136E10582D5D
:100AB0006C1D5B2D5C2D7F2D0430B900D2005208D7
:100AC000BA009330D2005208F4000A168A151F218A
:100AD0000A128A1183120313D300D4015308CC00E5
:100AE0005408CD000230CE000030CF000A168A151F
:100AF000C2230A128A11831203136C117F2DEB1C7F
:100B0000822D832D2B2E0530B900D2005208BA0059
:100B10009130D2005208F4000A168A151F210A12D9
:100B20008A1183120313D300D4015308AB00540875
:100B3000AC00242EC6300A168A159B220A128A118E
:100B4000831203132C08FC01FC072B08FB01FB0795
:100B50004330D2005208FD000A128A110B200A12FB
:100B60008A11433083120313CE000030CF00D0012E
:100B7000D1010A128A1500200A128A118312031366
:100B80002B08D2005208F60091300A168A15FD2172
:100B90000A128A11793083120313D2005208F4002A
:100BA0000A168A151F210A128A1183120313D30011
:100BB000D4015308F6005408F7000A30F80000305A
:100BC000F9000A168A15A2210A128A1177088312DF
:100BD0000313DB01DB077608DA01DA077630D2008F
:100BE0005208F4000A168A151F210A128A1183126C
:100BF0000313D300D4015308F6005408F7000A3059
:100C0000F8000030F9000A168A15A2210A128A118A
:100C1000770883120313CD01CD077608CC01CC07EA
:100C20005B08CF01CF075A08CE01CE070A168A15F6
:100C3000C2230A128A11013083120313AB0200305F
:100C4000031CAC03AC02242E2C082B04031D292EFC
:100C50002A2E9A2DEB106D1E2E2E2F2EB12E073020
:100C6000B900D2005208BA009230D2005208F40003
:100C70000A168A151F210A128A1183120313D30040
:100C8000D4015308AB005408AC00AA2E2B08D200A4
:100C90005208F60092300A168A15FD210A128A11AE
:100CA000793083120313D2005208F4000A168A1511
:100CB0001F210A128A1183120313D300D40153088F
:100CC000F6005408F7000A30F8000030F9000A1660
:100CD0008A15A2210A128A11770883120313DB01F5
:100CE000DB077608DA01DA077730D2005208F40021
:100CF0000A168A151F210A128A1183120313D300C0
:100D0000D4015308F6005408F7000A30F800003008
:100D1000F9000A168A15A2210A128A11770883128D
:100D20000313CD01CD077608CC01CC075B08CF01BA
:100D3000CF075A08CE01CE070A168A15C2230A1217
:100D40008A11013083120313AB020030031CAC0381
:100D5000AC02AA2E2C082B04031DAF2EB02E462E5B
:100D60006D126C1EB42EB52ECB2E0230B900D200FF
:100D70005208BA002330CC000030CD000230CE0043
:100D80000030CF000A168A15C2230A128A11831274
:100D900003136C12CB2EEB1FCE2ECF2EFF2E0A305C
:100DA000B900D2005208BA00FF30D2005208F40055
:100DB0000A168A151F210A128A1183120313D300FF
:100DC000D4015308CC005408CD00FF30D50055089D
:100DD000F4000A168A151F210A128A1183120313BE
:100DE000D600D7015608CE005708CF000A168A153C
:100DF000C2230A128A1183120313EB13FF2E080079
:100E0000FF0007308A007F088207052F0A168A151F
:100E10001F299B2F7F3083120313CE009030CF0009
:100E2000D0010314D00DD1010A128A1500200A1234
:100E30008A11BA2FAC3083120313CE009030CF004A
:100E4000D0010314D00DD1010A128A1500200A1214
:100E50008A11BA2F8E3083120313CE009030CF0048
:100E6000D0010314D00DD1010A128A1500200A12F4
:100E70008A11BA2FF13083120313CE009030CF00C5
:100E8000D0010314D00DD1010A128A1500200A12D4
:100E90008A11BA2F703083120313CE009030CF0026
:100EA000D0010314D00DD1010A128A1500200A12B4
:100EB0008A11BA2FE43083120313CE009030CF0092
:100EC000D0010314D00DD1010A128A1500200A1294
:100ED0008A11BA2F613083120313CE009130CF00F4
:100EE000D0010314D00DD1010A128A1500200A1274
:100EF0008A11BA2F183083120313CE009130CF001D
:100F0000D0010314D00DD1010A128A1500200A1253
:100F10008A11BA2F323083120313CE009130CF00E2
:100F2000D0010314D00DD1010A128A1500200A1233
:100F30008A11BA2FBA2F831203133B08013A0319FF
:100F40000A2F033A03191A2F013A03192A2F073AD5
:100F500003193A2F013A03194A2F033A03195A2F5A
:100F6000013A03196A2F0F3A03198A2F013A03191C
:100F70007A2FBA2F0800710870040319C02FC12FEF
:100F8000F72FF5010314F50DD12F01300310F00DEB
:100F9000F10DFF3E031DC62F0130F4007408F50764
:100FA000D12FF11FD42FD52FC52FD72FD72F7108B1
:100FB0007302031DDD2F70087202031CE02FE12F66
:100FC000E82F7008F2027108031CF303F302E82F04
:100FD00001300310F10CF00CFF3E031DE92F01302E
:100FE000F502031DF42FF52FD72FF72FF72F7308D6
:0E0FF000F101F1077208F001F007FE2F080072
:10100000831203135008013A031D072808280F28EC
:1010100001300A168A159B220A128A150F2883129C
:1010200003135108013A031D162817283828C03029
:101030000A168A159B220A128A1538283828831224
:1010400003134F08FF004E0884000A168A1500207B
:101050000A128A150A168A15D4220A128A15013034
:1010600083120313CE070318CF0A0030CF073828A6
:10107000831203134F08FF004E0884000A168A15D6
:1010800000200A128A150038031D472848281F2807
:10109000492808003B08031D4E28A6293B080A3AA8
:1010A000031953285428A6293B08083A031959283C
:1010B0005A28A62980300A168A159B220A128A15F8
:1010C0006C3083120313CE009130CF00D001D101D8
:1010D0000A128A1500200A128A153A300A168A1551
:1010E000D4220A128A158C300A168A159B220A12FB
:1010F0008A15831203134708013EFB0000300318D2
:101100000130FC004330DC005C08FD000A128A114B
:101110000B200A128A15433083120313CE000030CD
:10112000CF00D001D1010A128A1500200A128A15B7
:101130008312031335189D289E2830299030CE0045
:101140009130CF00D001D1010314D10D0A128A15BC
:1011500000200A128A150230F0000030F1008312DC
:1011600003133508DC00DD015C08F2005D08F300C4
:101170000A168A15FE240A128A157008013EA03E3E
:101180008400831300080A168A15D4220A128A15CD
:1011900083120313EE1CCD28CE285B29B508031D4E
:1011A000D228D328D8280630B900DC005C08BA0061
:1011B0003508023A031DDD28DE28E3280830B9008F
:1011C000DC005C08BA003508043A031DE828E92869
:1011D000EE280330B900DC005C08BA003508063A96
:1011E000031DF328F428F9280130B900DC005C085D
:1011F000BA003508083A031DFE28FF2805290930E2
:10120000B900DC005C08BA0005290A168A154723D4
:101210000A128A15831203133408F701F7073308FB
:10122000F601F6076430F8000030F9000A168A1556
:10123000A2210A128A157708FD01FD077608FC0134
:10124000FC070A168A157A210A128A150A168A15C7
:101250000D230A128A1583120313EE105B295B29F2
:10126000A630CE009030CF00D001D1010314D10DB3
:101270000A128A1500200A128A150230F000003086
:10128000F100831203133508DC00DD015C08F20075
:101290005D08F3000A168A15FE240A128A157008E2
:1012A000013EA03E8400831300080A168A15D4224A
:1012B0000A128A155B29C9300A168A159B220A125E
:1012C0008A15831203133408D101D1073308D001E2
:1012D000D0070230DC005C08D200D3010314D30D28
:1012E0000A168A15F5260A128A15CD300A168A15AD
:1012F0009B220A128A159C3083120313CE00913070
:10130000CF00D001D1010A128A1500200A128A15D5
:10131000831203133308DC005C08F6000C30DD0098
:101320005D08F0004708013E0A168A15EE200A12F1
:101330008A1583120313DE0035085E07FE3E0A1687
:101340008A15FD210A128A15A629A62983120313DC
:101350006B1CAB29AC292F2AEE29EE293408330463
:101360000319B329B429FC290130B3020030031C4E
:10137000B403B402FC29FC290130B3070318B40AF2
:101380000030B407FC293308DC005C08F600763036
:101390000A168A15FD210A128A15063083120313D4
:1013A000DC005C08B7000530DC005C08B800FC29F4
:1013B0003308DC005C08F60076300A168A15FD2139
:1013C0000A128A15063083120313DC005C08B7008A
:1013D0000730DC005C08B800FC29FC293B08073A10
:1013E0000319AE290F3A0319C329013A0319BC297D
:1013F000033A0319D829FC293B08031D002A252A92
:101400003B080A3A0319052A062A252A3B08083A06
:1014100003190B2A0C2A252AC8300A168A159B2282
:101420000A128A15831203133408D101D107330835
:10143000D001D0070330DC005C08D200D3010A16CB
:101440008A15F5260A128A15252A1430FC00003068
:10145000FD000A168A157A210A128A152F2A83128C
:101460000313ED1D342A352AB82A772A772A34083F
:10147000330403193C2A3D2A852A0130B302003087
:10148000031CB403B402852A852A0130B30703186C
:10149000B40A0030B407852A3308DC005C08F60083
:1014A00077300A168A15FD210A128A150730831231
:1014B0000313DC005C08B7000630DC005C08B800F1
:1014C000852A3308DC005C08F60077300A168A1596
:1014D000FD210A128A15073083120313DC005C0811
:1014E000B7000830DC005C08B800852A852A3B0874
:1014F000073A0319372A0F3A03194C2A013A0319FC
:10150000452A033A0319612A852A3B08031D892AC3
:10151000AE2A3B080A3A03198E2A8F2AAE2A3B08C4
:10152000083A0319942A952AAE2AC8300A168A1551
:101530009B220A128A15831203133408D101D107A2
:101540003308D001D0070330DC005C08D200D3019F
:101550000A168A15F5260A128A15AE2A1430FC00DE
:101560000030FD000A168A157A210A128A15B82A57
:10157000831203136B1FBD2ABE2A4E2B0B2B0B2B82
:10158000340833040319C52AC62A192B0130B302C3
:101590000030031CB403B402192B192B0130B3071C
:1015A0000318B40A0030B407192B3308DC005C08B8
:1015B000F60079300A168A15FD210A128A150830BC
:1015C00083120313DC005C08B7000730DC005C0802
:1015D000B8006430FC000030FD000A168A157A213C
:1015E0000A128A15192B831203133308DC005C08D6
:1015F000F60079300A168A15FD210A128A1508307C
:1016000083120313DC005C08B7000930DC005C08BF
:10161000B800192B192B3B08073A0319C02A0F3AB7
:101620000319D52A013A0319CE2A033A0319F32ADA
:10163000192B831203133B08031D1F2B442B3B085C
:101640000A3A0319242B252B442B3B08083A03198B
:101650002A2B2B2B442BC8300A168A159B220A12E0
:101660008A15831203133408D101D1073308D0013E
:10167000D0070330DC005C08D200D3010A168A15BB
:10168000F5260A128A15442B0A30FC000030FD00B2
:101690000A168A157A210A128A154E2B8312031311
:1016A000EC1C532B542BE42BA12BA12B340833041B
:1016B00003195B2B5C2BAF2B0130B3020030031CF2
:1016C000B403B402AF2BAF2B0130B3070318B40A35
:1016D0000030B407AF2B3308DC005C08F600933011
:1016E0000A168A15FD210A128A150930831203137E
:1016F000DC005C08B7000830DC005C08B80064302F
:10170000FC000030FD000A168A157A210A128A159B
:10171000AF2B831203133308DC005C08F600933010
:101720000A168A15FD210A128A150930831203133D
:10173000DC005C08B7000B30DC005C08B800AF2BA5
:10174000AF2B3B08073A0319562B0F3A03196B2BA3
:10175000013A0319642B033A0319892BAF2B831227
:1017600003133B08031DB52BDA2B3B080A3A031978
:10177000BA2BBB2BDA2B3B08083A0319C02BC12B21
:10178000DA2BC8300A168A159B220A128A15831290
:1017900003133408D101D1073308D001D007033037
:1017A000DC005C08D200D3010A168A15F5260A125D
:1017B0008A15DA2B0A30FC000030FD000A168A1563
:1017C0007A210A128A15E42B831203136D1FE92B69
:1017D000EA2B702C2F2C2F2C0030340215300319DB
:1017E0003302031CF42BF52B3D2C0130B3020030E7
:1017F000031CB403B4023D2C3D2C0130B307031885
:10180000B40A0030B4073D2C3308DC005C08F60055
:1018100078300A168A15FD210A128A150B308312B8
:101820000313DC005C08B7000930DC005C08B8007A
:101830003D2C3308DC005C08F60078300A168A1567
:10184000FD210A128A150B3083120313DC005C0899
:10185000B7000C30DC005C08B8003D2C3D2C3B0888
:10186000073A0319EC2B0F3A0319042C013A031918
:10187000FD2B033A0319192C3D2C3B08031D412C69
:10188000662C3B080A3A0319462C472C662C3B0869
:10189000083A03194C2C4D2C662CC8300A168A15B0
:1018A0009B220A128A15831203133408D101D1072F
:1018B0003308D001D0070330DC005C08D200D3012C
:1018C0000A168A15F5260A128A15662C0A30FC00BB
:1018D0000030FD000A168A157A210A128A15702C2A
:1018E00083120313EB1E752C762C9D2C8B2C8B2CCA
:1018F0000C30DC005C08B7000B30DC005C08B80082
:10190000932C0C30DC005C08B7000D30DC005C0868
:10191000B800932C932C3B08083A0319782C023A10
:101920000319812C932C0A30FC000030FD000A16AC
:101930008A157A210A128A159D2C831203136B1EB5
:10194000A22CA32C452DF62CF62C3308DC005C08C9
:10195000F6007C300A168A15FD210A128A150D3010
:1019600083120313DC005C08B7000C30DC005C0859
:10197000B800FE2C3308DC005C08F6007C300A1648
:101980008A15FD210A128A158312031334083304C1
:101990000319CB2CCC2CED2C7E30DC005C08E50050
:1019A00090306502031CD52CD62CD82CED2CED2CB8
:1019B000F60165080A168A15FD210A128A150130FA
:1019C00083120313DC005C08E50790306502031CFA
:1019D000EA2CEB2CD82CED2CED2C0D30DC005C0827
:1019E000B700B8010314B80DFE2CFE2C3B08083AD2
:1019F0000319A52C023A0319BA2CFE2C3B08031D2F
:101A0000022D3B2D3B080A3A0319072D082D3B2DCB
:101A10003B08083A03190D2D0E2D3B2DC6300A1632
:101A20008A159B220A128A15831203133B08093A6E
:101A3000031D1B2D1C2D292D59300A168A15D42261
:101A40000A128A15013083120313B3000030B40068
:101A5000292D3B08073A031D2E2D2F2D3B2D4E30EF
:101A60000A168A15D4220A128A1583120313B301A7
:101A7000B4013B2D3B2D0A30FC000030FD000A165E
:101A80008A157A210A128A15452D831203136D1DBA
:101A90004A2D4B2DEF2F062F062F3E08023A031D2D
:101AA000522D532D6E2D0530DC005C08F600913070
:101AB0000A168A15FD210A128A1583120313EB14E4
:101AC0000030CE009030CF00D0010314D00DD101F2
:101AD0000A128A1500200A128A156E2D831203132A
:101AE0003E08033A031D752D762DC02D2230CE0001
:101AF0009030CF00D0010314D00DD1010A128A1505
:101B000000200A128A15063083120313DC005C08D9
:101B1000BA000A168A1547230A128A15B82D06300C
:101B200083120313DC005C08BA000A168A154723E7
:101B30000A128A15EE30FC000230FD000A168A15E2
:101B40007A210A128A15063083120313DC005C081E
:101B5000B9000A168A150D230A128A15FA30FC00FC
:101B60000030FD000A168A157A210A128A15B82D4E
:101B700083120313871ABD2DBE2D8F2DC02DC02DAE
:101B80008030DC005C08C1008130DC005C08C200F1
:101B9000232F3E08023A031DCE2DCF2DEA2D05300E
:101BA000DC005C08F60092300A168A15FD210A1244
:101BB0008A15831203136D165230CE009030CF0079
:101BC000D0010314D00DD1010A128A1500200A1287
:101BD0008A15EA2D831203133E08033A031DF12DE3
:101BE000F22D3C2EFE30CE009030CF00D0010314F9
:101BF000D00DD1010A128A1500200A128A15083068
:101C000083120313DC005C08BA000A168A15472306
:101C10000A128A15342E083083120313DC005C0884
:101C2000BA000A168A1547230A128A15EE30FC00FC
:101C30000230FD000A168A157A210A128A15083028
:101C400083120313DC005C08B9000A168A150D2301
:101C50000A128A15FA30FC000030FD000A168A15B7
:101C60007A210A128A15342E83120313071A392E89
:101C70003A2E0B2E3C2E3C2E8230DC005C08C1003C
:101C80008330DC005C08C200232F8430DC005C0859
:101C9000C1008530DC005C08C200232F8630DC00E8
:101CA0005C08C1008730DC005C08C200232F88304C
:101CB000DC005C08C1008930DC005C08C200232F16
:101CC0008A30DC005C08C1008B30DC005C08C2009C
:101CD000232F3E08033A031D6E2E6F2EC02EC830F0
:101CE000CE009030CF00D0010314D00DD1010A12E4
:101CF0008A1500200A128A15093083120313DC00AA
:101D00005C08BA000A168A1547230A128A15AF2EF4
:101D100083120313BA010314BA0D0A168A15472356
:101D20000A128A15EE30FC000230FD000A168A15F0
:101D30007A210A128A1583120313B9010314B90D0B
:101D40000A168A150D230A128A15FA30FC00003093
:101D5000FD000A168A157A210A128A15AF2E8312FF
:101D60000313061AB42EB52E882EB62E0930DC00C9
:101D70005C08B9000A168A150D230A128A15C02EAE
:101D80008C3083120313DC005C08C1008D30DC0052
:101D90005C08C200232F8E30DC005C08C1008F304D
:101DA000DC005C08C200232F3E08013A031DD92E37
:101DB000DA2EE42E3D08013A031DDF2EE02EE42E3C
:101DC0000230DC005C08BE003E08023A031DE92E2A
:101DD000EA2EF42E3D08023A031DEF2EF02EF42ECB
:101DE0000330DC005C08BE003E08033A031DF92EF8
:101DF000FA2E232F3D08033A031DFF2E002F232F19
:101E0000BE010314BE0D232F232F232F3B08013ABD
:101E100003194D2D033A0319C92D013A0319452E13
:101E2000073A03194E2E013A0319572E033A0319A4
:101E3000602E013A0319692E0F3A0319D42E013A84
:101E40000319CB2E232F3D083E060319282F292FD7
:101E5000882F3E08013A031D2E2F2F2F3D2FD630FD
:101E6000CE009030CF00D0010314D00DD1010A1262
:101E70008A1500200A128A153D2F831203133E088B
:101E8000023A031D442F452F622F0F30CE009130B0
:101E9000CF00D0010314D00DD1010A128A15002001
:101EA0000A128A153E3083120313CE009130CF0000
:101EB000D001D1010314D10D0A128A1500200A1293
:101EC0008A15622F831203133E08033A031D692FFC
:101ED0006A2F782F0230CE009130CF00D00103144A
:101EE000D00DD1010A128A1500200A128A15782F06
:101EF0000A30FC000030FD000A168A157A210A1209
:101F00008A15831203133E08DC005C08BD00882F8D
:101F10003B08031D8C2FEF2F3B08083A0319912F24
:101F2000922FEF2F0A168A15CB200A128A158312D8
:101F300003133E08013A03199E2F9F2FAE2F0A125A
:101F40008A11DB230A128A150E3083120313DC0078
:101F50005C08B700B8010314B80DAE2F3E08033A71
:101F60000319B32FB42FBD2F3E08013A0319B92F1F
:101F7000BA2FBD2F6D11EC17BD2F3E08013A031D7E
:101F8000C22FC32FEF2F0A128A1109270A128A15AE
:101F9000C5300A168A159B220A128A15831203136A
:101FA0004208DC005C08FC0041080A168A152E2253
:101FB0000A128A157D0883120313D101D1077C0808
:101FC000D001D0070530DD005D08D200D3010A162C
:101FD0008A15F5260A128A15EF2FEF2FEF2F83129D
:101FE00003133B08031DF52FFC2FBB01BF01AB0101
:101FF000AC01AD01AE01FC2F08000A168A115F2E5C
:1020000050345234453450344134523449344E34CF
:102010004734203443344F34463446344534453411
:10202000003448344134563445342034413420346B
:1020300048344F34543420345334493450342034E9
:102040002134003443344F34463446344534453427
:10205000203443344C34453441344E3449344E34C6
:102060004734003443344F344634463445344534E1
:1020700020344434493443344134543449344F34A3
:102080004E3400344C344F345734203454344534B7
:102090004D34503445345234413454345534523430
:1020A00045340034203450345234453450344134B3
:1020B000523449344E344734203454344534413456
:1020C000003443344F344E34463449344734553465
:1020D0005234453420344D344F3444344534003484
:1020E0002034203442344C34413443344B34203493
:1020F00043344F3446344634453445340034203478
:102100004E344F3452344D3441344C342034433403
:102110004F3446344634453445340034203420347A
:102120004C344934473448345434203443344F34E5
:102130004634463445344534003444344934433419
:102140004134543449344F344E34203444344534CB
:102150004C344134593400342034203420344E344B
:102160004F3452344D3441344C342034543445349B
:10217000413400342034203443344134463445342F
:102180002034443445342034563449344534003402
:102190004D3449344C344B34203443344C3445347E
:1021A00041344E3449344E344734003443344F3490
:1021B00055344E3454342034443449345334503438
:1021C0004C344134593400342034203420344234E7
:1021D0004C34413443344B3420345434453441344A
:1021E00000342034203420344C34493447344834CB
:1021F0005434203454344534413400345434453458
:102200004134203443344C34453441344E34493421
:102210004E3447340034543445344134203444344B
:10222000493443344134543449344F344E34003407
:1022300020342034203448344F345434203457343C
:102240004134543445345234003420342034203462
:10225000423445345634453452344134473445349D
:1022600053340034203420342034203420342034BB
:102270004534583454345234413400345034523498
:1022800045345034413452344134543449344F3459
:102290004E34003443344F3455344E3454342034A7
:1022A000523445345334453454340034503441347A
:1022B0005334533457344F34523444343A34203442
:1022C00000342034203420342034203420344D3461
:1022D00049344C344B340034533445344C34453455
:1022E0004334543449344F344E3400344334553439
:1022F0005034203443344F3455344E345434003445
:1023000043344F344E34543449344E3455344534C8
:1023100000344D3445344E3455343A34203400348E
:102320004C344F3441344434203400345434493430
:102330004D3445343A340034533445344334003456
:102340008430831603139F008130831203139F0090
:10235000080083120313CD01CE014A084904031972
:10236000B229B329F129CF010314CF0DC3290130BC
:102370000310C90DCA0DFF3E031DB8290130FC0032
:102380007C08CF07C329CA1FC629C729B729C9296D
:10239000C92901300310CD0DCE0DFF3E031DCA2902
:1023A0004A084C02031DD62949084B02031CD929AF
:1023B000DA29E2294908CB024A08031CCC03CC02E3
:1023C0004D14E22901300310CA0CC90CFF3E031D55
:1023D000E3290130CF02031DEE29EF29C929F12994
:1023E000F1294E08CA01CA074D08C901C907F829D1
:1023F00008000A168A1506210A168A110A168A1575
:102400004C240A168A110A168A15CB200A168A113C
:102410000A168A155B210A168A110A168A11A0214A
:102420000A168A110A168A1125240A168A1183129D
:102430000313EB151B2A00300A168A1563220A16AD
:102440008A11710883120313AA01AA077008A9014F
:10245000A907CC30C9000030CA002A08F701F707E5
:102460002908F601F6076430F8000030F9000A1672
:102470008A15A2210A168A11770883120313CC0148
:10248000CC077608CB01CB070A168A11A9210A16B8
:102490008A11831203134A08B201B2074908B10135
:1024A000B1076430FC000030FD000A168A157A215D
:1024B0000A168A118312031331080A3EE600320815
:1024C0000318013E003EE7007830E8006808F40099
:1024D0000A168A151F210A168A1183120313E900AE
:1024E000EA0167086A02031D772A66086902031C6D
:1024F0007A2A7B2ABA2AEB1D7E2A7F2ABA2A8715D6
:10250000EC133208FC01FC073108FB01FB074330E8
:10251000E6006608FD000A128A110B200A168A11CD
:10252000831203136E1A952A962AA42A4230CE00EB
:102530009030CF00D0010314D00DD1010A128A15BA
:1025400000200A168A11A42AC7300A168A159B226F
:102550000A168A11433083120313CE000030CF00D5
:10256000D001D1010A128A1500200A168A1183129D
:1025700003136E167830E6006608F4000A168A1512
:102580001F210A168A1183120313E700E80132089B
:102590006802031DCD2A310867020318D02AD12A08
:1025A000F82A6E1ED42AD52AF82A87111130CE00B7
:1025B0009030CF00D0010314D00DD1010A128A153A
:1025C00000200A168A11DC30FC000530FD000A16D6
:1025D0008A157A210A168A1183120313EC17EB1558
:1025E0000A168A155B210A168A11831203136E12CA
:1025F0000A128A115C200A168A110A168A115A25B3
:102600000A168A110A128A11F8200A168A111B2A40
:102610001B2A0A128A1100283B08093A031D112BB4
:10262000122B392B132B86300A168A159B220A1679
:102630008A11831203133508013EFB000030031892
:102640000130FC004330DC005C08FD000A128A11F6
:102650000B200A168A11433083120313CE00003078
:10266000CF00D001D1010A128A1500200A168A1162
:10267000392B831203133B08031D3F2B662B3B08AA
:102680000A3A0319442B452B662B3508DC005C08FD
:10269000F9003508203E8400831300080A168A15C5
:1026A000E6250A168A118312031335080A168A15BD
:1026B00063260A168A113230FC000030FD000A162B
:1026C0008A157A210A168A11662B662B8312031348
:1026D000ED1C6B2B6E2B0A128A15A629C82BC82B52
:1026E0004708031D742BE82B0130C702B501E82B06
:1026F000E82B0730470203187E2B7F2BE82B013095
:10270000DC005C08C707B501E82BE82B3508031D82
:102710008A2BE82B0130B502E82BE82B0930350273
:102720000318932B942BE82B0130DC005C08B507D1
:10273000E82BE82BE82BEE14E82B340833040319BC
:10274000A22BA32BE82B0130B3020030031CB403EF
:10275000B402E82BE82B0130B3070318B40A0030A9
:10276000B407E82B0530DC005C08B7000430DC005F
:102770005C08B800C701B501E82B0530DC005C0837
:10278000B7000630DC005C08B800C701E82BE82B76
:102790003B08013A0319702B033A0319792B013ACC
:1027A0000319862B073A03198E2B013A0319E82BDC
:1027B000033A03199B2B013A03199D2B0F3A031976
:1027C000B22B013A0319AB2B033A0319BD2BE82BAB
:1027D0003B08013A0319ED2BEE2B032C3B08023A80
:1027E0000319F32BF42B032C3B08033A0319F92BA1
:1027F000FA2B032C3B08043A031DFF2B022C0A1270
:102800008A154A28032C0C30DC005C08F0004708CD
:10281000013E0A168A15EE200A168A118312031346
:10282000DD0035085D07FE3EDE005E08F4000A1696
:102830008A151F210A168A1183120313DF00E00193
:102840005F08B3006008B400FF2B83120313EC137E
:10285000EB116D10ED13ED106B10ED116B13EC100F
:102860006D13EB126B126D11DE0109305E02031C59
:102870003A2C3B2C3D2C572C572C5E080A168A15F7
:1028800072250A168A1183120313DC005E08203EAB
:1028900084005C08831380000130DC005C08DE07E4
:1028A00009305E02031C552C562C3D2C572C9130C0
:1028B000DC005C08F4000A168A151F210A168A112A
:1028C00083120313DD0002305D020318682C692CAB
:1028D0007C2C9230DC005C08F4000A168A151F215B
:1028E0000A168A1183120313DD0002305D02031CF5
:1028F0007A2C7B2C592D7C2C8030CE009130CF004F
:10290000D0010314D00DD1010A128A1500200A1635
:102910008A113E3083120313CE009130CF00D001D4
:10292000D1010314D10D0A128A1500200A168A114A
:10293000992C83120313861B9E2C9F2C352D9130CE
:10294000DC005C08F4000A168A151F210A168A1199
:10295000FF3E83120313DD005D08F60091300A1676
:102960008A15FD210A168A11923083120313DC00A6
:102970005C08F4000A168A151F210A168A11FF3E08
:1029800083120313DD005D08F60092300A168A15E3
:10299000FD210A168A1180300A168A159B220A1612
:1029A0008A110F3083120313CE009130CF00D00173
:1029B000D1010A128A1500200A168A119130831259
:1029C0000313DC005C08F4000A168A151F210A169E
:1029D0008A1183120313DD0002305D02031CF12C07
:1029E000F22C062D9130DC005C08F4000A168A15E2
:1029F0001F210A168A1183120313DD000A305D02BB
:102A00000318032D042D062DEB14062D9230DC0047
:102A10005C08F4000A168A151F210A168A1183120F
:102A20000313DD0002305D02031C172D182D2C2D21
:102A30009230DC005C08F4000A168A151F210A1681
:102A40008A1183120313DD000A305D020318292D59
:102A50002A2D2C2D6D162C2D0A128A11DB230A1615
:102A60008A1183120313EE15352D061F382D392DCB
:102A70003D2DEE1D3C2D3D2D992CEE11F601913092
:102A80000A168A15FD210A168A11F60192300A16D5
:102A90008A15FD210A168A110E3083120313DC00F9
:102AA0005C08B700B8010314B80D592D992C992C66
:102AB000592D080083120313EC1F5F2D602D142E77
:102AC0003B080A3A0319652D662D142E0A128A1145
:102AD00009270A168A11831203133B08093A031DBA
:102AE000722D732D752D6C15752D3B08031D792DD9
:102AF000142E3B08FF3E203E84008313001C812DD2
:102B0000822D842D6B15842D3B08FF3E203E8400D2
:102B1000801C8B2D8C2D8E2DED168E2D3B08FF3EAF
:102B2000203E8400001D952D962D982D6C17982D14
:102B30003B08FF3E203E8400801D9F2DA02DA32D2D
:102B4000EC156C16A32D3B08FF3E203E8400001EB2
:102B5000AA2DAB2DAD2D6E14AD2D0A168A15CB20E6
:102B60000A168A11831203133B08083A0319B92D78
:102B7000BA2D082E7E30DC005C08F4000A168A1597
:102B80001F210A168A11013E83120313E10000304F
:102B900003180130E2007F30DC005C08F9006208B5
:102BA000FB01FB076108FA01FA077E300A168A1555
:102BB00082230A168A11831203133B08DC005C0788
:102BC0007E3EDD005D08F4000A168A151F210A16F4
:102BD0008A11013E83120313E10000300318013013
:102BE000E2003B08DC005C077F3EDD005D08F90089
:102BF0006208FB01FB076108FA01FA073B08DE00E7
:102C00005E077E3E0A168A1582230A168A11082E4E
:102C10000A128A11DB230A168A110A168A155B2109
:102C20000A168A11142E142E83120313EB19192E6F
:102C30001C2E0A168A11AC2EEC1B1F2E202E192ECC
:102C40006D1D232E262E0A168A11B12E192E192E2D
:102C50005F2E0130AB070318AC0A0030AC079C3084
:102C60002C06031D352E3F302B06031D382E392E22
:102C7000472E0130AD070318AE0A0030AE07AB0196
:102C8000AC010A128A115C200A168A11472E0530FF
:102C9000831203132D062E04031D4F2E502E5F2E7C
:102CA000EC13EB11B7010314B70D0230DC005C0824
:102CB000B800AD01AE01EB116E115F2E5F2E861BC9
:102CC000622E632E6C2EEC1B662E672E292EEB19BE
:102CD0006A2E6B2E292E6C2E6E1D6F2E702E822E5C
:102CE0006D19732E742E822EEC13EB110E30DC0056
:102CF0005C08B800BE010314BE0DAB01AC01AD0110
:102D0000AE01822E6E19852E862E232E6D1D892EE4
:102D10008A2E232E0330DC005C08B9000A168A15BF
:102D20000D230A168A11093083120313DC005C0894
:102D3000B9000A168A150D230A168A110E3083125D
:102D40000313DC005C08B700B8010314B80DBE0122
:102D5000BD01232EB12EB12E3B080A3A0319FD2FD7
:102D6000B12E6D1CB42EB52E452F072F072FE30172
:102D7000E40101306402003003196302031CC12E18
:102D8000C22EC42E152F152FF60163080A168A15B8
:102D9000FD210A168A11013083120313E307031879
:102DA000E40A0030E40701306402003003196302D2
:102DB000031CDB2EDC2EC42E152F152F30082F04FC
:102DC0000319E32EE42E152F0130AF020030031C4F
:102DD000B003B002152F152F0130AF070318B00A4A
:102DE0000030B007152F02302F063004031DF92ED6
:102DF000FA2E152FAF01B0010230DC005C08B700DD
:102E00000430DC005C08B800152F152F152F3B0887
:102E1000013A0319B72E063A0319DE2E0E3A0319AA
:102E2000EC2E033A0319F32E152F3B08073A03192A
:102E30001A2F1B2F222F3B08093A031D202F212F69
:102E4000452F222F8C300A168A159B220A168A11CA
:102E5000831203133008D101D1072F08D001D00706
:102E60000430DC005C08D200D3010A168A15F5266E
:102E70000A168A119630FC000030FD000A168A15E9
:102E80007A210A168A11452F452F83120313ED1F4D
:102E90004A2F4D2F0A168A11662BD72FD72F3508A8
:102EA000203E840003108313001C031403185C2FBE
:102EB0005F2F3508203E840083130014612F831395
:102EC0000010F12F831203133508203E84000310F5
:102ED0008313801C03140318712F742F3508203EB0
:102EE000840083138014762F83138010F12F8312B4
:102EF00003133508203E840003108313001D0314C0
:102F00000318862F892F3508203E8400831300156F
:102F10008B2F83130011F12F831203133508203EEA
:102F2000840003108313801D031403189B2F9E2F0E
:102F30003508203E840083138015A02F8313801151
:102F4000F12F831203133508203E840003108313EE
:102F5000001E03140318B02FB32F3508203E840041
:102F600083130016B52F83130012F12F831203135E
:102F70003508031DBC2FF12F0130B502F12FF12FC1
:102F8000073035020318C52FC62FF12F0130DC00A2
:102F90005C08B507F12FF12F0430DC005C08B700A6
:102FA0000530DC005C08B800B501F12FF12F3B08BB
:102FB000013A03194F2F033A0319622F013A0319FB
:102FC000772F073A03198C2F013A0319A12F023AE0
:102FD0000319B62F0E3A0319C02F033A0319CC2F49
:102FE000F12F831203133B08073A0319FA2F0A162D
:102FF0008A110C2B0A168A11132B0A128A15FD2F1F
:10300000FF1B0A2883137F1883170008840A0319FB
:10301000FF0A08007F087F398A000408840A031920
:04302000FF0A820021
:103182003034313432343334343435343634373401
:10319200383439348312031388146430FC0000304D
:1031A200FD000A168A157A210A168A15831203135C
:1031B200881008007E088A007F0882000A168A1595
:1031C200DB200A168A158000840A04087D0603198A
:1031D2000034FF0A0319FE0ADF28F300F201731C10
:1031E200F328F428F9287008F1007108F207F92889
:1031F2000310F00D0310F30CF308031D012902293B
:10320200F0280329720805290800073083160313E2
:103212009F0007309C0001308500FF308600880146
:10322200303087008901831203138501FF30860045
:1032320030308700FD308800890108006400831661
:1032420003178C18252926291F2927297408831278
:1032520003178D003F30F5007508831603178C05A0
:103262000C1403100C1803140030031801308312DD
:1032720003170C083C290800EB01EC01ED01EE01FB
:1032820083132030840049300A128A1103200A165F
:103292008A15AA30FD001830FE00C130FF00A030B0
:1032A20084000A168A15DF200A168A1583010A1677
:1032B2008A11F929BA3083120313CE009030CF005D
:1032C200D0010314D00DD1010A128A1500200A166A
:1032D2008A15253083120313CE009130CF00D0011E
:1032E200D1010314D10D0A128A1500200A168A157B
:1032F2000800043083120313C9004908CA00AF3022
:10330200C9004908CB00862986290130CB02031D5A
:103312008B298C2986298D290130CA02031D922905
:103322009329802994290130FC020030031CFD03FB
:10333200FD027D087C04031D9F29A0297A29A12969
:103342000800FA01FB01A529761CA829A929AF29A1
:103352007808FA070318FB0A7908FB070130031003
:10336200F80DF90DFF3E031DB02901300310F70CD3
:10337200F60CFF3E031DB72977087604031DC22908
:10338200C329A529C4297B08F701F7077A08F601A2
:10339200F607CB290800F8007808F2007208F90055
:1033A200D329D329790884000130F90783138008CF
:1033B200031DDC29DD29D329DE297808F20000303B
:1033C200F300F209F309F20A0319F30A7908F40087
:1033D2000030F50072087407F60073080318730AC8
:1033E2007507F7007608FF3EF00077080318013EE4
:1033F200FF3EF100FC290800F800FF29831603179D
:103402008C18042A052AFF29062A78088312031732
:103412008D0076088C003F30F7007708831603177B
:103422008C058312031303108B1F182A192A1A2AD8
:1034320003148B13831603170C1555308D00AA3015
:103442008D008C140C1183120313031C292A2A2ABF
:103452002D2A8B172D2A2D2A080083120313CE0042
:103462004E08C9004908F4000A168A151F210A16D7
:103472008A1583120313CA007C08CB004B08F400A0
:103482000A168A151F210A168A1583120313CC0005
:10349200CD014C08F6004D08F700FF30F80000306F
:1034A200F9000A168A15A2210A168A158312031335
:1034B2004A087607FC000030031801307707FD0048
:1034C200622A0800F400C730F20072088312031364
:1034D2009F057408F20002300310F20DFF3E031D37
:1034E2006D2A0310720DF30073089F044130F3003C
:1034F200EE30F200F20B7B2AF30B7B2A640083127C
:1035020003131F15842A1F19872A882A842A892AC5
:103512001E08F200F3017208F300F201831603138E
:103522001E087207F0000030031801307307F10023
:103532009A2A080083120313CD004D08F03988003F
:10354200081188150530FC000030FD000A168A15A6
:103552007A210A168A158312031388110530FC009A
:103562000030FD000A168A157A210A168A1583127E
:1035720003134D08CC0003300310CC0DFF3E031D96
:10358200BD2A03104C0D8800081188150530FC0077
:103592000030FD000A168A157A210A168A1583124E
:1035A20003138811080083120313CD004D08F0396C
:1035B2008800081588150530FC000030FD000A1649
:1035C2008A157A210A168A15831203138811053087
:1035D200FC000030FD000A168A157A210A168A15A7
:1035E200831203134D08CC0003300310CC0DFF3EB1
:1035F200031DF62A03104C0D8800081588150530A6
:10360200FC000030FD000A168A157A210A168A1576
:103612008312031388110800242B051105120511CA
:103622000512462B8512462B0710462B8710462B78
:103632000910462B0711462B8910462B0911462BE0
:103642008711462B462B831203133908013A0319BB
:103652000E2B033A0319102B013A0319132B073AC5
:103662000319152B013A0319172B033A0319192BC6
:10367200013A03191B2B0F3A03191D2B013A0319A7
:103682001F2B033A0319212B462B08005F2B05152C
:103692000512812B05110516812B8516812B071426
:1036A200812B8714812B0914812B0715812B8914F7
:1036B200812B0915812B8715812B812B83120313F3
:1036C2003A08013A0319482B033A03194B2B013AE2
:1036D20003194E2B073A0319502B013A0319522BA7
:1036E200033A0319542B013A0319562B0F3A0319C3
:1036F200582B013A03195A2B033A03195C2B812BDD
:103702000800FC0001307B02003003197A02031822
:103712008B2B8C2B992B7A0883120313C90049082F
:10372200F6007C080A168A15FD210A168A15C12B95
:103732007A08013E83120313C9004908F6007C0887
:103742000A168A15FD210A168A15790883120313AF
:10375200C9004908F4000A168A151F210A168A159B
:1037620083120313CA007A084A07013ECB004B08B2
:10377200F60079080A168A15FD210A168A15C12B48
:1037820008000A168A1547230A168A15831203139C
:103792004D08F701F7074C08F601F6076430F80008
:1037A2000030F9000A168A15A2210A168A1577082E
:1037B200FD01FD077608FC01FC070A168A157A212D
:1037C2000A168A150A168A150D230A168A158312F5
:1037D20003134F08F701F7074E08F601F6076430A6
:1037E200F8000030F9000A168A15A2210A168A1575
:1037F2007708FD01FD077608FC01FC070A168A1509
:103802007A210A168A15080083120313CC004C0889
:10381200FA007A08CA004C080A168A15CC210A1640
:103822008A157008831203134C07FF3EFA007A08C8
:10383200CB00442C4C088400831300082D3A031D4E
:10384200232C242C292C0130FA007A08CC07292CAD
:103852004A0884000008FA007A08C9004B0884006C
:103862000008FA004A0884007A0880004908FA0031
:103872004B0884007A0880000130FA007A08CA07EF
:103882000130CB02442C4B084A02031C492C4A2C1F
:103892001B2C4B2C080028300A168A159B220A166C
:1038A2008A150230FC000030FD000A168A157A21C2
:1038B2000A168A150E300A168A159B220A168A15CE
:1038C2000230FC000030FD000A168A157A210A1621
:1038D2008A1506300A168A159B220A168A150230A4
:1038E200FC000030FD000A168A157A210A168A1594
:1038F20001300A168A159B220A168A150230FC002C
:103902000030FD000A168A157A210A168A150C3033
:103912000A168A159B220A168A150230FC0000300C
:10392200FD000A168A157A210A168A150800F60180
:10393200F31F9C2C9D2CA62CF209F309F20A031901
:10394200F30AF6010314F60DA62CF11FA92CAA2CDA
:10395200B02CF009F109F00A0319F10AB02C710830
:1039620070040319B52CB62CEC2CF5010314F50DDB
:10397200C62C01300310F00DF10DFF3E031DBB2CD0
:103982000130F4007408F507C62CF11FC92CCA2CAB
:10399200BA2CCC2CCC2C71087302031DD22C7008CB
:1039A2007202031CD52CD62CDD2C7008F202710891
:1039B200031CF303F302DD2C01300310F10CF00CB5
:1039C200FF3E031DDE2C0130F502031DE92CEA2C1B
:1039D200CC2CEC2CEC2C7608031DF02CF62CF209E6
:1039E200F309F20A0319F30AF62C7308F101F1073D
:1039F2007208F001F007FD2C0800F601F11F022DFC
:103A0200032D0C2DF009F109F00A0319F10AF60150
:103A12000314F60D0C2DF31F0F2D102D1A2DF20984
:103A2200F309F20A0319F30A0130F4007408F606E6
:103A32001A2DF701F801710870040319212D222DA6
:103A4200602DF5010314F50D322D01300310F00D38
:103A5200F10DFF3E031D272D0130F4007408F50718
:103A6200322DF11F352D362D262D382D382D0130D2
:103A72000310F70DF80DFF3E031D392D7108730277
:103A8200031D452D70087202031C482D492D512D2E
:103A92007008F2027108031CF303F3027714512D2C
:103AA20001300310F10CF00CFF3E031D522D0130CA
:103AB200F502031D5D2D5E2D382D602D602D7608DB
:103AC200031D642D6A2DF709F809F70A0319F80A8C
:103AD2006A2D7808F101F1077708F001F007712DDE
:103AE2000800F9007908F6007608F4000A168A152B
:103AF2001F210A168A15F700003077180130F800E6
:103B0200F80DF80D8312031336087806FB39780690
:103B1200B6007908F6007608F4000A168A151F2105
:103B22000A168A15F7000030F7180130F800F80D70
:103B3200F80DF80D8312031336087806F739780664
:103B4200B6007908F6007608F4000A168A151F21D5
:103B52000A168A15F700003077190130F80083122F
:103B6200031336087806FE397806B6007908F6009F
:103B72007608F4000A168A151F210A168A15F7001C
:103B82000030F7190130F800F80D831203133608DC
:103B92007806FD397806B6007908F6007608F40052
:103BA2000A168A151F210A168A15F7000030771A9D
:103BB2000130F800F80E8312031336087806EF3945
:103BC2007806B6003608E52D080083120313D300E9
:103BD200D4015319ED2DEE2DF72D5408FE39FA00BC
:103BE200FB017A08C9007B08CA00FC2D013054048D
:103BF200C9000030CA004908FA007A08D400D31973
:103C0200032E042E0D2E5408FD39FA00FB017A080A
:103C1200CB007B08CC00122E02305404CB000030C3
:103C2200CC004B08FA007A08D4005318192E1A2E29
:103C3200232E5408FB39FA00FB017A08CD007B08D9
:103C4200CE00282E04305404CD000030CE004D08A2
:103C5200FA007A08D400D3182F2E302E392E5408A9
:103C6200F739FA00FB017A08CF007B08D0003E2E1C
:103C720008305404CF000030D0004F08FA007A0810
:103C8200D400531A452E462E4F2E5408EF39FA000F
:103C9200FB017A08D1007B08D200542E1030540464
:103CA200D1000030D2005108FA007A08D40054083A
:103CB200FA007A08F60079080A168A15FD210A1612
:103CC2008A15080083120313CF004F080A168A15BB
:103CD20072250A168A1583120313CE004E08B60007
:103CE200C3300A168A159B220A168A1583120313F9
:103CF200361C7C2E7D2E842E59300A168A15D4222B
:103D02000A168A158A2E4E300A168A15D4220A16E7
:103D12008A15C5300A168A159B220A168A1583123D
:103D22000313B61C952E962E9D2E59300A168A150F
:103D3200D4220A168A15A32E4E300A168A15D422C8
:103D42000A168A15C7300A168A159B220A168A1580
:103D520083120313361DAE2EAF2EB62E59300A161D
:103D62008A15D4220A168A15BC2E4E300A168A15D6
:103D7200D4220A168A15C9300A168A159B220A16F7
:103D82008A1583120313B61DC72EC82ECF2E5930A3
:103D92000A168A15D4220A168A15D52E4E300A160C
:103DA2008A15D4220A168A15CB300A168A159B2246
:103DB2000A168A1583120313361EE02EE12EE82E10
:103DC20059300A168A15D4220A168A15EE2E4E305A
:103DD2000A168A15D4220A168A15CD300A168A15B1
:103DE2009B220A168A1508000A3083120313D80090
:103DF2000030D9005208D400D5015408D600550825
:103E0200D7000030570203300319560203180A2F55
:103E12000B2F0D2F342F342F5908F701F7075808AD
:103E2200F601F6070A30F8000030F9000A168A1582
:103E3200A2210A168A15770883120313D901D9071A
:103E42007608D801D8070130D6020030031CD70308
:103E5200D702003057020330031956020318322FDB
:103E6200332F0D2F342F5208D400D5015408D60019
:103E72005508D700003057020330031956020318C1
:103E8200432F442F462FA72FA72F5908CA01CA072D
:103E92005808C901C9075108CC01CC075008CB0109
:103EA200CB070A168A11A9210A168A15831203134F
:103EB2004908A03E8400831300080A168A15D422FA
:103EC2000A168A15831203135908F101F1075808DB
:103ED200F001F0075108F301F3075008F201F2076D
:103EE2000A128A11BB270A168A1571088312031354
:103EF200D101D1077008D001D0070A30C9000030C3
:103F0200CA005908CC01CC075808CB01CB070A16C6
:103F12008A11A9210A168A15831203134A08D901A4
:103F2200D9074908D801D8070130D6020030031C4E
:103F3200D703D7020130D2020030570203300319EF
:103F420056020318A52FA62F462FA72F0330520281
:103F52000318AC2FAD2FFF2F5908CA01CA07580802
:103F6200C901C9075108CC01CC075008CB01CB07C6
:103F72000A168A11A9210A168A15831203134908FF
:103F8200A03E8400831300080A168A15D4220A165A
:103F92008A15831203135908F101F1075808F00139
:103FA200F0075108F301F3075008F201F2070A1271
:103FB2008A11BB270A168A15710883120313D101CD
:103FC200D1077008D001D0075308013A031DEA2F28
:103FD200EB2FF22F2E300A168A15D4220A168A15D2
:103FE200F22F831203135008A03E840083130008AB
:0E3FF2000A168A15D4220A168A15FF2F080017
:02400E0032FF7F
:00000001FF
