:100000008A11AA2E00308A000408840A820700346C
:1000100050344934433443344934523443345534EE
:0E002000493454342E3443344F344D340034BC
:100D2C00F9007908F8007808F00001308A115D2785
:100D3C008A1108003034313432343334343435349D
:100D4C00363437343834393483132A30FD000630C6
:100D5C00FE00A030FF00203084008A11BD268A11CD
:100D6C0083018A11CA2E7E088A007F0882008A11AC
:100D7C00B9268A118000840A04087D060319003400
:100D8C00FF0A0319FE0ABD2E8A11DC268A118A116C
:100D9C00AB278A1141308A1196268A1101308A11AB
:100DAC0017278A11D92ED92E8A11002883160313DE
:100DBC000F168F160F17831203179E019F018316B0
:100DCC000313850187011515811383120313870102
:100DDC006430F0000030F1008A11F6268A11080008
:100DEC008530F2000030F300FC2EFC2E0130F202B4
:100DFC000030031CF303F30273087204031D072F66
:100E0C00082FFC2E092F0130F0020030031CF103D7
:100E1C00F10271087004031D142F152FF62E162FD6
:100E2C000800F900512F402FF0010314F00D003091
:100E3C008A115D278A110230F0000030F1008A110E
:100E4C00F6268A114C2FC030F8007808F0000030DC
:100E5C008A115D278A114C2F790884008A1102208F
:100E6C008A11F8007808F00001308A115D278A1188
:100E7C004C2F4C2F790884008A1102208A110A3ACF
:100E8C000319292F693A03191A2F322F0130F80050
:100E9C007808F907512F790884008A1102208A11E9
:100EAC000038031D5A2F5B2F402F5C2F0800F700D2
:100EBC007718612F652F831203130516682F831281
:100ECC00031305120530F3000030F4006E2F6E2F63
:100EDC000130F3020030031CF403F40274087304B1
:100EEC00031D792F7A2F6E2F7B2FF0307005F100B8
:100EFC008312031307080F397104870085168512B6
:100F0C007008F10004300310F10DFF3E031D892F12
:100F1C00F0307105F20007080F397204870085164E
:100F2C0085120530F5000030F6009D2F9D2F013005
:100F3C00F5020030031CF603F60276087504031D57
:100F4C00A82FA92F9D2FAA2F080083120313051277
:100F5C0085123230F0000030F1008A11F6268A1129
:100F6C008312031307080F39303887008516851252
:100F7C001A30F9000030FA00C42FC42F0130F902E6
:100F8C000030031CFA03FA027A087904031DCF2FF0
:100F9C00D02FC42FD12F8312031307080F392038F9
:100FAC008700851685122830F8007808F00000308C
:100FBC008A115D278A110C30F8007808F000003097
:100FCC008A115D278A11F0010314F00D00308A118B
:100FDC005D278A110230F0000030F1008A11F626EC
:100FEC008A110630F8007808F00000308A115D276D
:040FFC008A1108004E
:02400E00F4FCC0
:00000001FF
